:020000040800F2
:1000000000500020C13D00082524000827240008D6
:10001000292400082B2400082D24000800000000DB
:100020000000000000000000000000002F24000875
:1000300031240008000000003324000835240008A3
:10004000093E0008093E0008093E0008093E000874
:10005000093E0008093E0008093E0008093E000864
:10006000093E0008093E00083D240008093E00083A
:10007000093E0008093E0008093E0008093E000844
:10008000093E0008093E0008093E0008093E000834
:10009000093E0008093E0008093E00084724000800
:1000A000093E0008093E0008093E0008093E000814
:1000B000093E0008093E0008093E0008093E000804
:1000C000093E0008093E0008093E0008093E0008F4
:1000D000093E0008093E0008093E0008093E0008E4
:1000E000093E0008093E0008093E00080000000023
:1000F0000000000000000000000000000000000000
:0C01000000000000000000005FF808F1A3
:1001100010B5054C237833B9044B13B10448AFF341
:1001200000800123237010BDFC1D00200000000092
:1001300084A2000808B5034B1BB103490348AFF381
:10014000008008BD00000000001E002084A20008FE
:1001500081F0004102E000BF83F0004330B54FEA78
:1001600041044FEA430594EA050F08BF90EA020FE5
:100170001FBF54EA000C55EA020C7FEA645C7FEA78
:10018000655C00F0E2804FEA5454D4EB5555B8BF9B
:100190006D420CDD2C4480EA020281EA030382EA0C
:1001A000000083EA010180EA020281EA0303362D9E
:1001B00088BF30BD11F0004F4FEA01314FF4801C71
:1001C0004CEA113102D0404261EB410113F0004F83
:1001D0004FEA03334CEA133302D0524263EB43033A
:1001E00094EA050F00F0A780A4F10104D5F1200ED8
:1001F0000DDB02FA0EFC22FA05F2801841F1000133
:1002000003FA0EF2801843FA05F359410EE0A5F106
:1002100020050EF1200E012A03FA0EFC28BF4CF037
:10022000020C43FA05F3C01851EBE37101F00045ED
:1002300007D54FF0000EDCF1000C7EEB00006EEBFA
:100240000101B1F5801F1BD3B1F5001F0CD3490884
:100250005FEA30004FEA3C0C04F101044FEA4452DB
:1002600012F5800F80F09A80BCF1004F08BF5FEA62
:10027000500C50F1000041EB045141EA050130BD42
:100280005FEA4C0C404141EB0101013C28BFB1F554
:10029000801FE9D291F0000F04BF01460020B1FA9F
:1002A00081F308BF2033A3F10B03B3F120020CDA72
:1002B0000C3208DD02F1140CC2F10C0201FA0CF050
:1002C00021FA02F10CE002F11402D8BFC2F1200CB5
:1002D00001FA02F120FA0CFCDCBF41EA0C0190406B
:1002E000E41AA2BF01EB0451294330BD6FEA0404B4
:1002F0001F3C1CDA0C340EDC04F11404C4F120029F
:1003000020FA04F001FA02F340EA030021FA04F3B0
:1003100045EA030130BDC4F10C04C4F1200220FA07
:1003200002F001FA04F340EA0300294630BD21FA45
:1003300004F0294630BD94F0000F83F4801306BF0B
:1003400081F480110134013D4EE77FEA645C18BFFF
:100350007FEA655C29D094EA050F08BF90EA020F96
:1003600005D054EA000C04BF1946104630BD91EA8E
:10037000030F1EBF0021002030BD5FEA545C05D191
:100380004000494128BF41F0004130BD14F58004D0
:100390003CBF01F5801130BD01F0004545F0FE4144
:1003A00041F470014FF0000030BD7FEA645C1ABF79
:1003B000194610467FEA655C1CBF0B46024650EAB0
:1003C000013406BF52EA033591EA030F41F40021DC
:1003D00030BD00BF90F0000F04BF0021704730B562
:1003E0004FF4806404F132044FF000054FF0000137
:1003F00050E700BF90F0000F04BF0021704730B5F8
:100400004FF4806404F1320410F0004548BF4042CC
:100410004FF000013EE700BF42004FEAE2014FEA21
:1004200031014FEA02701FBF12F07F4393F07F4FFC
:1004300081F06051704732F07F4208BF704793F0FF
:100440007F4F04BF41F40021704730B54FF4607412
:1004500001F0004521F000411CE700BF50EA010215
:1004600008BF704730B54FF000050AE050EA0102BE
:1004700008BF704730B511F0004502D5404261EB2E
:1004800041014FF4806404F132045FEA915C3FF46F
:10049000D8AE4FF003025FEADC0C18BF03325FEA0C
:1004A000DC0C18BF033202EBDC02C2F1200300FABD
:1004B00003FC20FA02F001FA03FE40EA0E0021FAE2
:1004C00002F11444BDE600BF70B54FF0FF0C4CF4D0
:1004D000E06C1CEA11541DBF1CEA135594EA0C0F82
:1004E00095EA0C0F00F0DEF82C4481EA030621EABD
:1004F0004C5123EA4C5350EA013518BF52EA0335F8
:1005000041F4801143F4801338D0A0FB02CE4FF0A9
:100510000005E1FB02E506F00042E0FB03E54FF0D9
:100520000006E1FB03569CF0000F18BF4EF0010ED1
:10053000A4F1FF04B6F5007F64F5407404D25FEACD
:100540004E0E6D4146EB060642EAC62141EA555180
:100550004FEAC52040EA5E504FEACE2EB4F1FD0CC2
:1005600088BFBCF5E06F1ED8BEF1004F08BF5FEA40
:10057000500E50F1000041EB045170BD06F00046F2
:1005800046EA010140EA020081EA0301B4EB5C049F
:10059000C2BFD4EB0C0541EA045170BD41F4801197
:1005A0004FF0000E013C00F3AB8014F1360FDEBFBC
:1005B000002001F0004170BDC4F10004203C35DA98
:1005C0000C341BDC04F11404C4F1200500FA05F31B
:1005D00020FA04F001FA05F240EA020001F00042BC
:1005E00021F0004110EBD37021FA04F642EB060132
:1005F0005EEA430E08BF20EAD37070BDC4F10C045C
:10060000C4F1200500FA04F320FA05F001FA04F21F
:1006100040EA020001F0004110EBD37041F100010B
:100620005EEA430E08BF20EAD37070BDC4F1200516
:1006300000FA05F24EEA020E20FA04F301FA05F27E
:1006400043EA020321FA04F001F0004121FA04F226
:1006500020EA020000EBD3705EEA430E08BF20EAF6
:10066000D37070BD94F0000F0FD101F00046400030
:1006700041EB010111F4801F08BF013CF7D041EAB2
:10068000060195F0000F18BF704703F000465200B6
:1006900043EB030313F4801F08BF013DF7D043EA87
:1006A0000603704794EA0C0F0CEA135518BF95EA3D
:1006B0000C0F0CD050EA410618BF52EA4306D1D1C4
:1006C00081EA030101F000414FF0000070BD50EAE3
:1006D000410606BF1046194652EA430619D094EA6D
:1006E0000C0F02D150EA013613D195EA0C0F05D157
:1006F00052EA03361CBF104619460AD181EA0301AB
:1007000001F0004141F0FE4141F470014FF0000062
:1007100070BD41F0FE4141F4780170BD70B54FF0FD
:10072000FF0C4CF4E06C1CEA11541DBF1CEA13557D
:1007300094EA0C0F95EA0C0F00F0A7F8A4EB05045F
:1007400081EA030E52EA03354FEA013100F0888056
:100750004FEA03334FF0805545EA131343EA12631F
:100760004FEA022245EA111545EA10654FEA0026D4
:100770000EF000419D4208BF964244F1FD0404F58D
:10078000407402D25B084FEA3202B61A65EB0305E9
:100790005B084FEA32024FF480104FF4002CB6EBA6
:1007A000020E75EB030E22BFB61A754640EA0C0026
:1007B0005B084FEA3202B6EB020E75EB030E22BF66
:1007C000B61A754640EA5C005B084FEA3202B6EBA7
:1007D000020E75EB030E22BFB61A754640EA9C0066
:1007E0005B084FEA3202B6EB020E75EB030E22BF36
:1007F000B61A754640EADC0055EA060E18D04FEAF4
:10080000051545EA16754FEA06164FEAC30343EA93
:1008100052734FEAC2025FEA1C1CC0D111F4801F60
:100820000BD141EA00014FF000004FF0004CB6E759
:1008300011F4801F04BF01430020B4F1FD0C88BFF8
:10084000BCF5E06F3FF6AFAEB5EB030C04BFB6EB03
:10085000020C5FEA500C50F1000041EB045170BDF6
:100860000EF0004E4EEA113114EB5C04C2BFD4EB23
:100870000C0541EA045170BD41F480114FF0000EA7
:10088000013C90E645EA060E8DE60CEA135594EA23
:100890000C0F08BF95EA0C0F3FF43BAF94EA0C0F26
:1008A0000AD150EA01347FF434AF95EA0C0F7FF49B
:1008B00025AF104619462CE795EA0C0F06D152EAEF
:1008C00003353FF4FDAE1046194622E750EA4106D3
:1008D00018BF52EA43067FF4C5AE50EA41047FF4E4
:1008E0000DAF52EA43057FF4EBAE12E74FEA410247
:1008F00012F5001215D211D56FF47873B3EB625272
:1009000012D94FEAC12343F0004343EA505311F098
:10091000004F23FA02F018BF404270474FF000002A
:10092000704750EA013005D111F0004008BF6FF068
:10093000004070474FF00000704700BF4FEA41028F
:10094000B2F1E04324BFB3F5001CDCF1FE5C0DD92D
:1009500001F0004C4FEAC0024CEA5070B2F1004F77
:1009600040EB830008BF20F00100704711F0804F7A
:1009700021D113F13872BCBF01F00040704741F43F
:1009800080114FEA5252C2F11802C2F1200C10FA43
:100990000CF320FA02F018BF40F001004FEAC12327
:1009A0004FEAD32303FA0CFC40EA0C0023FA02F3CB
:1009B0004FEA4303CCE77FEA625307D150EA0133A1
:1009C0001EBF4FF0FE4040F44000704701F0004071
:1009D00040F0FE4040F40000704700BF80F000404F
:1009E00002E000BF81F0004142001FBF5FEA410307
:1009F00092EA030F7FEA226C7FEA236C6AD04FEA07
:100A00001262D2EB1363C1BFD2184140484041404B
:100A1000B8BF5B42192B88BF704710F0004F40F4FD
:100A2000000020F07F4018BF404211F0004F41F419
:100A3000000121F07F4118BF494292EA030F3FD0E5
:100A4000A2F1010241FA03FC10EB0C00C3F12003F8
:100A500001FA03F100F0004302D5494260EB400087
:100A6000B0F5000F13D3B0F1807F06D340084FEAF2
:100A7000310102F10102FE2A51D2B1F1004F40EBE7
:100A8000C25008BF20F0010040EA0300704749004F
:100A900040EB0000013A28BFB0F5000FEDD2B0FAEC
:100AA00080FCACF1080CB2EB0C0200FA0CF0AABF0F
:100AB00000EBC25052421843BCBFD04018437047AD
:100AC00092F0000F81F4000106BF80F400000132B3
:100AD000013BB5E74FEA41037FEA226C18BF7FEA8A
:100AE000236C21D092EA030F04D092F0000F08BFCC
:100AF0000846704790EA010F1CBF0020704712F0B3
:100B00007F4F04D1400028BF40F00040704712F1F1
:100B100000723CBF00F50000704700F0004343F056
:100B2000FE4040F4000070477FEA226216BF08468C
:100B30007FEA23630146420206BF5FEA412390EA4F
:100B4000010F40F4800070474FF0000304E000BF45
:100B500010F0004348BF40425FEA000C08BF7047F6
:100B600043F0964301464FF000001CE050EA0102BA
:100B700008BF70474FF000030AE000BF50EA0102CF
:100B800008BF704711F0004302D5404261EB4101BC
:100B90005FEA010C02BF84460146002043F0B643E1
:100BA00008BFA3F18053A3F50003BCFA8CF2083A06
:100BB000A3EBC25310DB01FA02FC634400FA02FC0F
:100BC000C2F12002BCF1004F20FA02F243EB020016
:100BD00008BF20F00100704702F1200201FA02FC78
:100BE000C2F1200250EA4C0021FA02F243EB02006B
:100BF00008BF20EADC7070474FF0FF0C1CEAD052AF
:100C00001EBF1CEAD15392EA0C0F93EA0C0F6FD06F
:100C10001A4480EA010C400218BF5FEA41211ED04D
:100C20004FF0006343EA501043EA5111A0FB013139
:100C30000CF00040B1F5000F3EBF490041EAD3710E
:100C40005B0040EA010062F17F02FD2A1DD8B3F18A
:100C5000004F40EBC25008BF20F00100704790F0F9
:100C6000000F0CF0004C08BF49024CEA502040EA4B
:100C700051207F3AC2BFD2F1FF0340EAC250704711
:100C800040F400004FF00003013A5DDC12F1190F4F
:100C9000DCBF00F000407047C2F10002410021FAC1
:100CA00002F1C2F1200200FA02FC5FEA310040F1D9
:100CB000000053EA4C0308BF20EADC70704792F052
:100CC000000F00F0004C02BF400010F4000F013A8A
:100CD000F9D040EA0C0093F0000F01F0004C02BF85
:100CE000490011F4000F013BF9D041EA0C018FE7F4
:100CF0000CEAD15392EA0C0F18BF93EA0C0F0AD0FA
:100D000030F0004C18BF31F0004CD8D180EA01001F
:100D100000F00040704790F0000F17BF90F0004FB8
:100D2000084691F0000F91F0004F14D092EA0C0F9A
:100D300001D142020FD193EA0C0F03D14B0218BF2D
:100D4000084608D180EA010000F0004040F0FE4073
:100D500040F40000704740F0FE4040F4400070470F
:100D60004FF0FF0C1CEAD0521EBF1CEAD15392EA8E
:100D70000C0F93EA0C0F69D0A2EB030280EA010C7E
:100D800049024FEA402037D04FF0805343EA111117
:100D900043EA10130CF000408B4238BF5B0042F175
:100DA0007D024FF4000C8B4224BF5B1A40EA0C001A
:100DB000B3EB510F24BFA3EB510340EA5C00B3EB4C
:100DC000910F24BFA3EB910340EA9C00B3EBD10F3A
:100DD00024BFA3EBD10340EADC001B0118BF5FEA8C
:100DE0001C1CE0D1FD2A3FF650AF8B4240EBC250B5
:100DF00008BF20F0010070470CF0004C4CEA502076
:100E00007F32C2BFD2F1FF0340EAC250704740F4C4
:100E100000004FF00003013A37E792F0000F00F0B6
:100E2000004C02BF400010F4000F013AF9D040EA34
:100E30000C0093F0000F01F0004C02BF490011F4C8
:100E4000000F013BF9D041EA0C0195E70CEAD153C0
:100E500092EA0C0F08D142027FF47DAF93EA0C0FA7
:100E60007FF470AF084676E793EA0C0F04D14B028B
:100E70003FF44CAF08466EE730F0004C18BF31F03D
:100E8000004CCAD130F000427FF45CAF31F0004337
:100E90007FF43CAF5FE700BF844641EA000313F0F4
:100EA000030349D1403A23D30B6803604B68436086
:100EB0008B688360CB68C3600B6903614B694361D6
:100EC0008B698361CB69C3610B6A03624B6A4362BE
:100ED0008B6A8362CB6AC3620B6B03634B6B4363A6
:100EE0008B6B8363CB6BC36340304031403ADBD2C2
:100EF00030320BD30B6803604B6843608B688360B0
:100F0000CB68C36010301031103AF3D20C3205D3E5
:100F100051F8043B40F8043B043AF9D2043208D0BB
:100F2000D2071CBF11F8013B00F8013B01D30B882D
:100F300003806046704700BF082A13D38B07B1D0E7
:100F400010F00303AED0C3F10403D21ADB071CBFB9
:100F500011F8013B00F8013BA4D331F8023B20F823
:100F6000023B9FE7043AD9D3013A11F8013B00F85C
:100F7000013BF9D20B7803704B7843708B78837008
:100F8000604670474FF0FF3C06E000BF4FF0010C99
:100F900002E000BF4FF0010C4DF804CD4FEA410CC8
:100FA0007FEA6C5C4FEA430C18BF7FEA6C5C1BD095
:100FB00001B050EA410C0CBF52EA430C91EA030F16
:100FC00002BF90EA020F0020704710F1000F91EA73
:100FD000030F58BF994208BF90422CBFD8176FEA41
:100FE000E37040F0010070474FEA410C7FEA6C5C0F
:100FF00002D150EA013C07D14FEA430C7FEA6C5C16
:10100000D6D152EA033CD3D05DF8040B704700BF41
:101010008446104662468C461946634600E000BF8F
:1010200001B5FFF7B7FF002848BF10F1000F01BD61
:101030004DF808EDFFF7F4FF0CBF012000205DF82C
:1010400008FB00BF4DF808EDFFF7EAFF34BF0120B1
:1010500000205DF808FB00BF4DF808EDFFF7E0FF4A
:1010600094BF012000205DF808FB00BF4DF808ED9B
:10107000FFF7CEFF94BF012000205DF808FB00BF02
:101080004DF808EDFFF7C4FF34BF012000205DF8E4
:1010900008FB00BF4FEA410C7FEA6C5C02D150EACA
:1010A000013C0AD14FEA430C7FEA6C5C02D152EA60
:1010B000033C02D14FF0000070474FF00100704731
:1010C00053B94AB9002908BF00281CBF4FF0FF31AF
:1010D0004FF0FF3000F076B9ADF1080C6DE904CEA9
:1010E00000F006F8DDF804E0DDE9022304B0704703
:1010F0002DE9F047089E0D4604468846002B4DD149
:101100008A42944668D9B2FA82F252B101FA02F3E5
:10111000C2F1200120FA01F10CFA02FC41EA0308B5
:1011200094404FEA1C41B8FBF1F71FFA8CFE01FB1B
:10113000178807FB0EF0230C43EA084398420AD9AC
:101140001CEB030307F1FF3580F01E81984240F24B
:101150001B81023F63441B1AB3FBF1F001FB103308
:1011600000FB0EFEA4B244EA0344A6450AD91CEBD8
:10117000040400F1FF3380F00981A64540F20681A6
:10118000644402380021A4EB0E0440EA07401EB17B
:101190000023D440C6E90043BDE8F0878B4208D95C
:1011A000002E00F0EE800021C6E900050846BDE8EB
:1011B000F087B3FA83F100294AD1AB4202D38242CD
:1011C00000F2FC80841A65EB030301209846002E90
:1011D000E2D0C6E90048DFE702B9FFDEB2FA82F2E8
:1011E000002A40F09180A1EB0C0001214FEA1C473E
:1011F0001FFA8CFEB0FBF7F307FB1300250C45EA42
:1012000000450EFB03F0A84208D91CEB050503F1CD
:10121000FF3802D2A84200F2CE8043462D1AB5FB19
:10122000F7F007FB10550EFB00FEA4B244EA05449C
:10123000A64508D91CEB040400F1FF3502D2A645EF
:1012400000F2B6802846A4EB0E0440EA03409EE775
:10125000C1F120078B4022FA07FC4CEA030C25FA67
:1012600007FA4FEA1C49BAFBF9F820FA07F309FB21
:1012700018AA8D401FFA8CFE1D4300FA01F308FBEB
:101280000EF02C0C44EA0A44A04202FA01F20BD9F7
:101290001CEB040408F1FF3A80F08880A04240F281
:1012A0008580A8F102086444241AB4FBF9F009FB14
:1012B000104400FB0EFEADB245EA0444A64508D931
:1012C0001CEB040400F1FF356CD2A6456AD9023844
:1012D000644440EA0840A0FB0295A4EB0E04AC4233
:1012E000C846AE4656D353D0002E69D0B3EB0802A1
:1012F00064EB0E0422FA01F304FA07F71F43CC4013
:10130000C6E90074002147E70CFA02FCC2F1200193
:1013100025FA01F34FEA1C4720FA01F195400D43ED
:10132000B3FBF7F107FB11331FFA8CFE280C40EAE0
:10133000034001FB0EF3834204FA02F408D91CEBCC
:10134000000001F1FF382FD283422DD902396044C9
:10135000C01AB0FBF7F307FB1300ADB245EA004536
:1013600003FB0EF0A84208D91CEB050503F1FF387A
:1013700016D2A84214D9023B6544281A43EA014117
:1013800038E73146304607E72F46E4E61846F9E6E7
:101390004B45A9D2B9EB020865EB0C0E0138A3E767
:1013A0004346EAE7284694E74146D1E7D0467BE743
:1013B0006444023847E7023B65442FE7084606E7E6
:1013C0003146E9E6704700BF70B588B00024049448
:1013D000059406940794254B9A6942F020029A617D
:1013E0009A6902F020020192019A9A6942F004027D
:1013F0009A619A6902F004020292029A9A6942F092
:1014000008029A619B6903F008030393039B184D3C
:10141000224640F6F801284601F0FCFC70230493B4
:10142000144B05930126069604A9134801F0E0FB2E
:1014300040F6F8030493059606940223079304A943
:10144000284601F0D5FB224621460A2001F076FB12
:101450000A2001F0ABFB22462146172001F06EFB6B
:10146000172001F0A3FB08B070BD00BF00100240C0
:10147000000C0140000011100008014008B50C49A3
:10148000FFF76EFCFEF7C8FF08F0BCFCFFF756FA4A
:101490000849FFF765FC0849FFF7A6FA01464FF037
:1014A0007E50FFF75DFC0549FFF79CFA08BD00BFC1
:1014B00000401C4600E076450FCF5B3B33938843EA
:1014C00010B584B00446012808D0022C40D0032C6B
:1014D00072D0042C00F0A58004B010BD10230222AD
:1014E0000021084600F07AFD10230322002118464F
:1014F00000F074FD102304220021202000F06EFD76
:101500001823654A14211E2000F04AFD1023634A67
:101510001B21602000F044FD0C23614A342100208F
:1015200000F03EFD5F4B1B68002BCED00C235E4AC3
:101530003421002000F034FD574A5C49684602F02F
:10154000E1FC642306226946594802F0CCFBBCE763
:10155000102305220021084600F040FD102306223A
:101560000021184600F03AFD1823524A14211E208B
:1015700000F016FD1023504A1B21602000F010FDE2
:101580000C23474A3421002000F00AFD454B1B681C
:10159000002B9CD00C23444A3421002000F000FD95
:1015A000444A4249684602F0ADFC6423072269467A
:1015B0003F4802F098FB8AE71023072200210846E3
:1015C00000F00CFD102304220021184600F006FD57
:1015D00018233A4A14211E2000F0E2FC10230822AE
:1015E0001B21602000F0FAFC0C232D4A342100203E
:1015F00000F0D6FC2B4B1B68002B3FF46AAF0C238A
:10160000294A3421002000F0CBFC2C4A27496846A7
:1016100002F078FC642306226946254802F063FB49
:1016200057E7102300221146104600F0D7FC102384
:1016300001220021184600F0D1FC1823204A142171
:101640001E2000F0ADFC102309221B21602000F0B9
:10165000C5FC102343221B21682000F03FFC0C2313
:101660000F4A3421002000F09BFC0E4B1B68002B1E
:101670003FF432AF0C230C4A3421002000F090FCE0
:101680000F4A0A49684602F03DFC64230722694676
:10169000074802F028FB1FE7181E0020A0A2000840
:1016A000A4A2000804000020B0A20008BCA2000808
:1016B0004C1F0020281E0020C4A20008381E002055
:1016C000481E002010B50446102804D0202C0CD051
:1016D000402C14D010BD1E4A1368C3F101031360DF
:1016E00000F0B8FB00F090FBF0E71A4A1368C3F172
:1016F0000103136000F0AEFB00F086FBE8E700F0AA
:10170000A9FB154C204601F06DF90C23134A00216A
:10171000084600F045FC204601F07EF9204601F025
:101720003DF80F4C204601F05DF90C230D4A0021D5
:10173000084600F035FC204601F06EF9204601F025
:101740002DF800F061FB084B14221A60C2E700BFBD
:1017500000000020040000205C1E0020C8A2000839
:101760008C1E0020D8A20008581E002072B6FEE78A
:1017700000B585B000230193029303930F48104AEC
:10178000026083600122027303754FF46021C1611E
:101790004360026101F0A2F860B901230193029352
:1017A0000723039301A9054800F012FF20B905B0F3
:1017B0005DF804FBFFF7DAFFFFF7D8FF5C1E00209F
:1017C0000024014000B585B00023019302930393E8
:1017D0000F48104A026083600122027303754FF4C0
:1017E0006021C1614360026101F078F860B90023B3
:1017F000019301220292039301A9054800F0E8FE3B
:1018000020B905B05DF804FBFFF7B0FFFFF7AEFFAE
:101810008C1E00200028014000B58BB000230893E7
:1018200009930193029303930493059306930793FB
:1018300016484FF080420260436083604FF6FF72AB
:10184000C2600361836102F025F8C8B900230893E0
:10185000099308A90D4802F061F998B96023019332
:101860000023029303930593082201A9074802F07D
:101870006FF848B9054800F04BFD0BB05DF804FB6C
:10188000FFF774FFFFF772FFFFF770FFBC1E002029
:1018900008B50A480A4B03604FF4E1334360002364
:1018A0008360C3600361082242618361C36102F007
:1018B000EBF900B908BDFFF759FF00BF4C1F00202E
:1018C0000038014000B58BB00023089309930193C1
:1018D0000293039304930593069307931648174ABC
:1018E0000260436083604FF6FF72C26003618361F0
:1018F00001F0D0FFD0B900230893099308A90E483E
:1019000002F00CF9A0B96023019300230293039322
:10191000059304220DEB0201074802F019F848B9BB
:10192000054800F0F5FC0BB05DF804FBFFF71EFF67
:10193000FFF71CFFFFF71AFF041F00200004004000
:1019400000B595B0282200210DEB020002F088FAC4
:101950000023059306930793089309930193029339
:101960000393049301220A924FF480330B930E9257
:101970000222119212934FF4E01313930AA801F07C
:1019800073FAC8B90F230593022106910023079328
:101990004FF480620892099305A801F0A3FC68B98E
:1019A000022301934FF44043039301A801F076FD15
:1019B00030B915B05DF804FBFFF7D8FEFFF7D6FE8F
:1019C000FFF7D4FE000000002DE9F04F85B000F0D5
:1019D000C3FDFFF7B5FFFFF7F7FCFFF7C9FEFFF701
:1019E000F1FEFFF719FFFFF753FFFFF76BFFC24C44
:1019F000204601F0E1FEC14D284601F0DDFE042144
:101A0000284602F01DF80821204602F019F800F0DF
:101A100061FB012000F0E0F90C23B94A00210846DF
:101A200000F0BEFA00F0F0F9B64C204600F0F4FFEA
:101A30004FF47A7000F0B4FD204600F0AFFEB248DB
:101A400000F0ACFE002211464FF0FF3001F076F8B6
:101A50004FF000094FF0000A55465446CAE0A94825
:101A600000F0B2FD04440136632EF8DDA74B83FB82
:101A70000423E017C0EB6310FFF76AF84FF06651DC
:101A8000FFF7BAF8FEF7C8FC93A3D3E90023FEF7EB
:101A90001BFD06460F464846FEF7BEFC32463B4657
:101AA000FEF75CFBFEF74AFF81460BF1010BBBF52D
:101AB0007A7F02DA00263446D6E795494846FFF792
:101AC0004FF98146914B83FB0423E217C2EB63126B
:101AD0009049914802F016FA4846FEF79DFC0646EA
:101AE0000F4602460B468D498D4802F00BFA8D4990
:101AF0004846FFF781F8FEF78FFCCDE9000132463A
:101B00003B4675A1D1E90001FEF726FB02460B46D4
:101B1000CDE90223DDE90001FEF700FE02460B4697
:101B20008149824802F0EEF96DA3D3E90023DDE993
:101B30000201FEF7F3FD02460B4630463946FEF73A
:101B4000EDFDFEF7FBFEFFF799FCFEF765FC024694
:101B50000B467749774802F0D5F955457DD1764B4C
:101B60009C4204DD754B1B680BB1042D78DD744B72
:101B70009C4205DC714B1B6813B1042D40F38F8030
:101B8000B8F5806F40F39E802A465546A8F2014181
:101B900040F2FE33994240F2978013462A46A8F657
:101BA000010040F2FE31884240F290809A4613468E
:101BB000A8F6014840F20242904540F28A8055461C
:101BC0009A46604B1B68002B0FDD00F01DF90C23BB
:101BD0005D4A0021084600F0E3F95A4A1368013BC8
:101BE00013600A2000F0DCFC05252846FFF768FC9E
:101BF00000F00AF94B494846FEF7FEFFFEF70CFCE1
:101C000006460F464846FEF707FC02460B4632A141
:101C1000D1E90001FEF7A0FA02460B4630463946EC
:101C2000FEF77CFD30A3D3E90023FEF797FA30A33B
:101C3000D3E90023FEF748FCFEF758FE4FF0804240
:101C4000D06302F5806290632F4800F0BDFC8046AF
:101C50004FF0000B4FF0000929E700F0FBF87EE79A
:101C6000102328220021482000F038F910230A22EE
:101C70000021502000F0B2F910235F2200216020E3
:101C800000F02CF910230A2200216A2000F0A6F9A6
:101C90001023292200217A2000F020F967E7102381
:101CA0002A4A0021482000F07BF910230A2211461D
:101CB000582000F093F91023254A0021682000F0F5
:101CC0006FF95DE7012261E7022368E74FF0030A3D
:101CD0006EE7042575E700BF6666666666660A40BD
:101CE000000000000088C34000000000683201418D
:101CF000EE5F5969528AF6BFBC1E0020041F002007
:101D0000E8A200085C1E00208C1E00201F85EB51FD
:101D100000007A44F8A20008181E0020FCA2000867
:101D2000281E002000401C4604A30008381E002086
:101D30000CA30008481E002083BF02000000002002
:101D40001FBF0200581E00201CA3000814A3000897
:101D500018A3000838B5044659B1012210211D48C6
:101D600001F058F8002208211A4801F053F8002524
:101D700013E000221021174801F04CF8F2E700228E
:101D80004021144801F046F801228021114801F059
:101D900041F86400E4B20135EDB2072D0DD8002200
:101DA00080210C4801F036F814F0800FE7D00122B2
:101DB0004021084801F02EF8E6E7064C01220821F0
:101DC000204601F027F801221021204601F022F8D8
:101DD00038BD00BF000C014010B5044610B1012C05
:101DE00009D010BD0021C820FFF7B4FF0021A120B9
:101DF000FFF7B0FFF3E70021C020FFF7ABFF0021A2
:101E0000A020FFF7A7FFECE738B500250DE0104B49
:101E100003EBC4030121585DFFF79CFF0134E4B2DA
:101E200014F0800FF3D00135EDB2072D0FD8A5F1D6
:101E300050000021C0B2FFF78DFF00210846FFF7D8
:101E400089FF00211020FFF785FF0024E8E738BD57
:101E5000901F002008B500200BE0094A02EBC302E6
:101E6000002111540133DBB213F0800FF5D00130A3
:101E7000C0B2072801D80023F6E7FFF7C5FF08BD69
:101E8000901F00204FEAD10C01F0070101238B4085
:101E9000DBB2044A02EBC00010F80C20134300F838
:101EA0000C307047901F00204FEAD10C01F0070161
:101EB000012303FA01F1C9B2074A02EBC00010F88E
:101EC0000C30DB43DBB200F80C300B4300F80C3075
:101ED000DB4300F80C307047901F00202DE9F04FD5
:101EE00083B0804689461F4613F0070318BF0123BD
:101EF00003EBD703790801FB03F3DBB20193203A2C
:101F00005FFA82FB4C464FF0000A2EE00BEB4B03CE
:101F1000204A02EB830313F80A5036E01E4B03EB12
:101F20000B1313F80A5030E021464046FFF7BCFF80
:101F30006D00EDB20134E4B2A4EB0903BB420BD057
:101F40000136F6B2072E0CD815F0800FECD02146E2
:101F50004046FFF797FFEBE708F101085FFA88F8C2
:101F60004C460AF1010A5FFA8AFA019B9A450ED2A1
:101F70000C2FCBD0102FD1D0182F08D10BEBCB03C7
:101F8000064A02EB830313F80A500026DAE703B08F
:101F9000BDE8F08F30A30008A4A7000894AD0008A6
:101FA000F8B504460F4615461E4600E001352A786E
:101FB000A2F12000C0B25E280FD833463946204631
:101FC000FFF78CFF04EB5604E4B2C6F180039C4299
:101FD000ECDD0237FFB20024E8E7F8BD2DE9F04F51
:101FE00085B083460D4603929946DB080293009123
:101FF000074600230193029A1346013AD2B2029295
:10200000002B5BD0039B09FB03FACAF3C70A019BB1
:102010009A445FFA8AFA0133DBB201934FF0000869
:1020200032E0284B03EB0A1313F80860002416E093
:102030000AEBCA03244A02EBC30313F80860F5E76E
:10204000224B03EBCA1313F80860EFE72946384622
:10205000FFF72AFF76080135EDB20134E4B2072C10
:1020600007D816F0010FF1D029463846FFF70AFFCE
:10207000F0E70137FFB2A7EB0B03994518D008F141
:1020800001085FFA88F8009DC845B4D2B9F1100F75
:10209000C7D0B9F1180FCBD0B9F1200FD0D0B9F11A
:1020A000400F0BD10A4B03EB4A2313F80860BDE73E
:1020B000009B0833DBB200935F46E0E705B0BDE864
:1020C000F08F00BF080000206801002040020020BF
:1020D0004004002010B5404C00222021204600F092
:1020E00099FEC82000F05CFA01222021204600F071
:1020F00091FE0021AE20FFF72DFE00210846FFF7DC
:1021000029FE00211020FFF725FE00214020FFF7C7
:1021100021FE00218120FFF71DFE0021CF20FFF7C7
:1021200019FE0021A120FFF715FE0021C820FFF7AE
:1021300011FE0021A620FFF70DFE0021A820FFF7C9
:1021400009FE00213F20FFF705FE0021D320FFF705
:1021500001FE00210846FFF7FDFD0021D520FFF715
:10216000F9FD00218020FFF7F5FD0021D920FFF7C0
:10217000F1FD0021F120FFF7EDFD0021DA20FFF74E
:10218000E9FD00211220FFF7E5FD0021DB20FFF72C
:10219000E1FD00214020FFF7DDFD00212020FFF7B9
:1021A000D9FD00210220FFF7D5FD00218D20FFF78A
:1021B000D1FD00211420FFF7CDFD0021A420FFF761
:1021C000C9FD0021A620FFF7C5FD0021AF20FFF7C4
:1021D000C1FDFFF73FFE10BD000C014082B00E4B69
:1021E0009A6942F001029A619A6902F00102009232
:1021F000009ADA6942F08052DA61DB6903F08053B9
:102200000193019B054A536823F0E06343F0007398
:10221000536002B0704700BF001002400000014050
:1022200000B589B0002304930593069307930368D0
:10223000204A934205D0204A93421ED009B05DF84F
:1022400004FB1E4B9A6942F400729A619A6902F487
:1022500000720092009A9A6942F004029A619B69A6
:1022600003F004030193019B0223049303230593CA
:1022700004A9134800F0BCFCE0E7104B9A6942F453
:1022800080629A619A6902F480620292029A9A6963
:1022900042F004029A619B6903F004030393039BD9
:1022A000012304930323059304A9054800F0A0FC2F
:1022B000C4E700BF00240140002801400010024094
:1022C0000008014082B00368B3F1804F04D00E4A89
:1022D00093420DD002B0704703F50433DA6942F03F
:1022E0000102DA61DB6903F001030093009BF1E76F
:1022F000064BDA6942F00202DA61DB6903F002039D
:102300000193019BE6E700BF00040040001002407B
:1023100000B587B0002302930393049305930368E9
:10232000B3F1804F05D01C4A934221D007B05DF82D
:1023300004FB03F504339A6942F008029A619B6931
:1023400003F008030093009B4FF480630293022381
:102350000393059302A9114800F04AFC104A536800
:1023600023F4407343F0E06343F400735360DDE70C
:102370000C4B9A6942F004029A619B6903F00403D2
:102380000193019B8023029302230393059302A9E7
:10239000054800F02DFCC9E700040040000C014096
:1023A00000000140001002400008014010B586B056
:1023B000002302930393049305930268174B9A42F8
:1023C00001D006B010BD03F558439A6942F480422B
:1023D0009A619A6902F480420092009A9A6942F0E6
:1023E00004029A619B6903F004030193019B4FF47B
:1023F000007302930223039303230593084C02A95D
:10240000204600F0F5FB4FF4806302930023039312
:10241000049302A9204600F0EBFBD2E7003801400C
:1024200000080140FEE7FEE7FEE7FEE7FEE7704733
:102430007047704708B500F0A1F808BD08B5102036
:1024400000F0EEFC08BD08B5202000F0E9FC4020BB
:1024500000F0E6FC08BD0120704708B501F0D6FC8D
:10246000162303604FF0FF3008BD08B54FF0FF3171
:10247000FFF7F3FFFEE770B50C461646002506E0B1
:10248000AFF30080214601F8010B01350C46B5423F
:10249000F6DB304670BD70B50C461646002504E0EC
:1024A00014F8010BAFF300800135B542F8DB30467C
:1024B00070BD000008B503460B4A126842B10A4AD3
:1024C000106803446A46934206D8074A136008BD61
:1024D000054A06491160F2E701F098FC0C230360FD
:1024E0004FF0FF30F3E700BF1024002060240020ED
:1024F0004FF0FF3070474FF400534B60002070479F
:1025000001207047002070477047000010B5044656
:102510000E4B18784FF47A73B3FBF0F30C4A106843
:10252000B0FBF3F000F050FB68B90F2C01D901208B
:102530000AE0002221464FF0FF3000F0FFFA054B81
:102540001C60002000E0012010BD00BF44140020EA
:10255000401400204814002008B5074A136843F0CF
:1025600010031360032000F0D7FA0020FFF7CEFF1E
:10257000FFF734FE002008BD00200240034A116826
:10258000034B1B780B441360704700BF14240020DA
:1025900044140020014B1868704700BF1424002029
:1025A00038B50446FFF7F6FF0546B4F1FF3F02D009
:1025B000044B1B781C44FFF7EDFF401BA042FAD3ED
:1025C00038BD00BF441400200368D86C7047000079
:1025D00030B482B00022019290F82420012A00F049
:1025E00091800346012280F824204A68062A2DD8CB
:1025F0000468606B02EB8202053A4FF01F0C0CFA84
:1026000002FC20EA0C000D6805FA02F20243626344
:102610000A68092A3AD91C68E06802EB42021E3AAD
:102620004FF0070C0CFA02FC20EA0C008D6805FA4A
:1026300002F20243E2600A68103A012A36D9002009
:10264000002283F8242002B030BC70470C2A0ED838
:102650000568286B02EB8202233A1F24944020EA8B
:1026600004000C6804FA02F202432A63D0E705680A
:10267000E86A02EB8202413A1F24944020EA0400F7
:102680000C6804FA02F20243EA62C1E71C6820699E
:1026900002EB42024FF0070C0CFA02FC20EA0C009D
:1026A0008D6805FA02F202432261C4E71A681648EF
:1026B000824205D09A6A42F020029A620120BFE766
:1026C000906810F4000F1BD1906840F400009060F7
:1026D0000A68102A01D00020B2E70C4A12680C499F
:1026E000A1FB0212920C02EB82025200019202E064
:1026F000019A013A0192019A002AF9D100209FE73C
:1027000000209DE702209EE70024014040140020A5
:1027100083DE1B4330B583B00023019303689A68BE
:1027200012F0010F33D104469A6842F001029A6018
:10273000184B1B68184AA2FB03239B0C019302E071
:10274000019B013B0193019B002BF9D1FFF722FF75
:10275000054623689B6813F0010F16D1FFF71AFF97
:10276000431B022BF5D923689B6813F0010FF0D1AE
:10277000A36A43F01003A362E36A43F00103E36238
:10278000002384F82430012002E0002000E0002033
:1027900003B030BD4014002083DE1B4390F824308A
:1027A000012B68D010B50446012380F82430FFF7D0
:1027B000B1FF00285BD1A36A23F4407323F0010327
:1027C00043F48073A36223682C4A934227D0A26A01
:1027D00022F48012A2625A6812F4806F05D0A26AB5
:1027E00022F4405242F48052A262A26A12F4805F44
:1027F0002BD0E26A22F00602E262002284F8242052
:102800006FF002021A6023689A6802F46022B2F53F
:10281000602F1DD09A6842F480129A602AE0A2F5D7
:102820008062526812F4702FD1D0A26A42F48012F2
:10283000A262134A526812F4806FD6D0A26A22F4C0
:10284000405242F48052A262CFE70022E262D4E713
:102850000A4A934204D09A6842F4A0029A6009E0BE
:10286000A2F58062526812F4702FD3D1F3E70023EF
:1028700084F8243010BD0220704700BF00280140BA
:102880000024014038B503689A6812F0010F01D1A5
:10289000002038BD04469A6822F001029A60FFF7D2
:1028A00079FE054623689B6813F0010F13D0FFF7EC
:1028B00071FE431B022BF5D923689B6813F0010FAF
:1028C000F0D0A36A43F01003A362E36A43F001036C
:1028D000E3620120DDE70020DBE7000000287BD079
:1028E00070B50446836A002B4DD02046FFF7CAFF1F
:1028F000A36A13F0100369D1002867D1A26A22F4F9
:10290000885222F0020242F00202A2626268E16989
:102910000A43217B42EA4102A568B5F5807F02D0D7
:10292000012D36D01D46267D012E35D026687168D2
:1029300021F46941294371602568AE682749314017
:102940001143A960A168B1F5807F01D0012902D1AE
:102950002369013B1B052568E96A21F470010B43DB
:10296000EB62236899681E4B0B409A4225D0A36AFC
:1029700023F0120343F01003A362E36A43F0010360
:10298000E362012027E0C36280F82430FFF748FCAF
:10299000ABE74FF48075C6E731B9A169013945EA63
:1029A000413141F40065C1E7A16A41F02001A16213
:1029B000E16A41F00101E162B8E70023E362A36A42
:1029C00023F0030343F00103A36204E0A36A43F08E
:1029D0001003A362012070BD01207047FDF7E1FFE5
:1029E000FE0E1FFF90F82430012B13D010B50446C3
:1029F000012380F82430FFF745FF38B9A36A23F498
:102A0000885323F0010343F00103A362002384F8F9
:102A1000243010BD0220704770B582B000230193AE
:102A200090F82430012B72D00446012380F8243022
:102A3000FFF728FF054628B1002384F824302846F4
:102A400002B070BDA36A23F4885323F0020343F05D
:102A50000203A3622F4B1E68022000F0ABFDB6FB01
:102A6000F0F67600019602E0019B013B0193019B89
:102A7000002BF9D12046FFF74DFE2268936843F002
:102A800008039360FFF786FD064623689A6812F0F4
:102A9000080F14D0FFF77EFD801B0A28F5D92368A4
:102AA0009B6813F0080FF0D0A36A23F0120343F0E1
:102AB0001003A362002384F824300125BFE79A683D
:102AC00042F004029A60FFF765FD064623689B68A2
:102AD00013F0040F14D0FFF75DFD801B0A28F5D911
:102AE00023689B6813F0040FF0D0A36A23F012034D
:102AF00043F01003A362002384F8243001259EE7ED
:102B0000A36A23F0030343F00103A36294E70225C1
:102B100095E700BF40140020074AD36823F4E06320
:102B20001B041B0C000200F4E060034343F0BF638E
:102B300043F40033D360704700ED00E000B5194B5B
:102B4000DB68C3F30223C3F1070CBCF1040F28BFF9
:102B50004FF0040C03F1040EBEF1060F18D9033B2D
:102B60004FF0FF3E0EFA0CFC21EA0C0199400EFAE0
:102B700003F322EA0303194300280BDB0901C9B25E
:102B800000F1604000F5614080F800135DF804FB3F
:102B90000023E5E700F00F000901C9B2024B195408
:102BA000F4E700BF00ED00E014ED00E0002807DBD3
:102BB00000F01F02400901239340024A42F82030EE
:102BC000704700BF00E100E00138B0F1807F0BD218
:102BD0004FF0E0235861054AF02182F823100020CD
:102BE000986107221A6170470120704700ED00E0EC
:102BF00070B582B00024A446A6E0804DAA4210D051
:102C000007D97F4DAA420CD005F58035AA4208D0DD
:102C100013E0A5F58015AA4203D005F57025AA4258
:102C200007D18A68002A58D0012A51D0436108246C
:102C300003E0A5F58015AA42F3D0BEF1FF0F4ED8F0
:102C40000646BEF1FF0F4CD84FEA8C0233680F25C1
:102C5000954023EA050304FA02F2134333604B68FC
:102C600013F0805F6ED0674B9A6942F001029A615F
:102C70009B6903F001030193019B4FEA9C02951CA1
:102C8000614B53F825600CF003039D000F23AB400C
:102C900026EA03065D4B984229D003F580639842EB
:102CA00000F08E8003F58063984200F08B8003F57E
:102CB0008063984219D004231AE0CC68BDE7CC6841
:102CC0000434BAE7CC680834B7E7CC680C34B4E70E
:102CD00003610824B1E70024AFE70424ADE7061D33
:102CE000AFE7ACF108029200B0E7032300E0002355
:102CF000AB4033430232444D45F822304B6813F465
:102D0000803F61D0424A136843EA0E0313604B6868
:102D100013F4003F5ED03E4A536843EA0E0353600B
:102D20004B6813F4801F5BD0394A936843EA0E0363
:102D300093604B6813F4001F58D0354AD36843EAB8
:102D40000E03D3600CF1010C0A6832FA0CF353D075
:102D5000012303FA0CF302EA030E33EA0202F1D173
:102D60004A68122A3FF649AF122A3FF666AF01A51C
:102D700055F822F0232C0008BB2C0008C52C0008B5
:102D8000D72C00083B2C00083B2C00083B2C0008EB
:102D90003B2C00083B2C00083B2C00083B2C000877
:102DA0003B2C00083B2C00083B2C00083B2C000867
:102DB0003B2C00083B2C0008BF2C0008CB2C000843
:102DC000012395E7022393E7114A136823EA0E03D0
:102DD00013609CE70E4A536823EA0E0353609FE793
:102DE0000B4A936823EA0E039360A2E7084AD3686C
:102DF00023EA0E03D360A5E702B070BD00002210E5
:102E000000003110001002400000014000080140A5
:102E1000000401400AB10161704709040161704773
:102E200008B5054B5B69034200D108BD024B5861F0
:102E3000FEF748FCF9E700BF0004014082B0084BF0
:102E40001B68084AA2FB03235B0A00FB03F3019300
:102E500000BF019B5A1E0192002BF9D102B07047AE
:102E600040140020D34D6210002800F0F18170B5AD
:102E700082B00446036813F0010F2CD0994B5B68B5
:102E800003F00C03042B1DD0964B5B6803F00C037E
:102E9000082B12D06368B3F5803F41D0002B55D189
:102EA00003F1804303F504331A6822F480321A6078
:102EB0001A6822F480221A6037E08A4B5B6813F4A8
:102EC000803FE7D0874B1B6813F4003F03D0636853
:102ED000002B00F0BF81236813F0020F75D0814BE7
:102EE0005B6813F00C0F5FD07E4B5B6803F00C0344
:102EF000082B54D02369002B00F08A807A4B0122E2
:102F00001A60FFF747FB0546764B1B6813F0020F6C
:102F100075D1FFF73FFB401B0228F5D903209EE146
:102F2000704A136843F480331360636843B3FFF758
:102F300031FB05466B4B1B6813F4003FCBD1FFF709
:102F400029FB401B6428F5D9032088E1B3F5A02FA5
:102F500009D0644B1A6822F480321A601A6822F48D
:102F600080221A60E1E703F18043A3F53C331A683D
:102F700042F480221A601A6842F480321A60D4E760
:102F8000FFF708FB0546574B1B6813F4003FA2D020
:102F9000FFF700FB401B6428F5D903205FE1514B8C
:102FA0005B6813F4803FA5D14E4B1B6813F0020FF2
:102FB00003D02369012B40F04F814A4A136823F064
:102FC000F803616943EAC1031360236813F0080F33
:102FD00033D0A369002B5CD0434B0122C3F880247B
:102FE000FFF7D8FA05463F4B5B6A13F0020F21D179
:102FF000FFF7D0FA401B0228F5D903202FE1394A08
:10300000136823F0F803616943EAC1031360DCE746
:10301000354B00221A60FFF7BDFA0546314B1B689D
:1030200013F0020FD1D0FFF7B5FA401B0228F5D9F3
:10303000032014E10120FFF701FF236813F0040FC0
:1030400000F09680274BDB6913F0805F34D1254B6D
:10305000DA6942F08052DA61DB6903F08053019350
:10306000019B0125214B1B6813F4807F26D0E36868
:10307000012B3DD0002B53D103F1804303F50433E2
:103080001A6A22F001021A621A6A22F004021A6213
:1030900033E0154B0022C3F88024FFF77BFA054686
:1030A000104B5B6A13F0020FC7D0FFF773FA401B97
:1030B0000228F5D90320D2E00025D3E70B4A136894
:1030C00043F480731360FFF765FA0646074B1B68ED
:1030D00013F4807FCBD1FFF75DFA801B6428F5D90C
:1030E0000320BCE00010024000004242007000409B
:1030F0005F4A136A43F001031362E36833B3FFF7D7
:1031000049FA06465A4B1B6A13F0020F2FD1FFF7FC
:1031100041FA801B41F288339842F3D903209EE0A4
:10312000052B09D0524B1A6A22F001021A621A6A60
:1031300022F004021A62E0E74D4B1A6A42F00402E0
:103140001A621A6A42F001021A62D6E7FFF722FAFF
:103150000646474B1B6A13F0020F08D0FFF71AFA16
:10316000801B41F288339842F3D9032077E0E5B918
:10317000E369002B72D03E4A526802F00C02082A22
:1031800056D0022B17D03B4B00221A66FFF702FAEB
:103190000446374B1B6813F0007F47D0FFF7FAF95E
:1031A000001B0228F5D9032059E0314AD36923F0E6
:1031B0008053D361DCE72F4B00221A66FFF7EAF950
:1031C00005462B4B1B6813F0007F06D0FFF7E2F992
:1031D000401B0228F5D9032041E0236AB3F5803F64
:1031E0001AD023494B6823F47413226A606A02439D
:1031F00013434B601F4B01221A66FFF7CBF90446BD
:103200001B4B1B6813F0007F0ED1FFF7C3F9001BA7
:103210000228F5D9032022E0154A536823F400332D
:10322000A1680B435360DCE7002018E0002016E0A3
:10323000012B16D00E4B5B6803F48031226A914259
:1032400011D103F47013626A93420ED1002006E09C
:1032500001207047012002E0012000E0002002B0C0
:1032600070BD0120FBE70120F9E70120F7E700BF6F
:10327000001002400000424286B0164B0FCB0DF109
:10328000180C0CE90F0040F20123ADF80430124B8A
:103290005B6803F00C02082A02D0104806B07047A1
:1032A000C3F38342624412F8100C13F4803F0CD035
:1032B000094B5B68C3F34043634413F8143C074A6B
:1032C00002FB00F0B0FBF3F0E8E7054B03FB00F076
:1032D000E4E700BF08BB00080010024000127A00BB
:1032E00000093D00002800F0A08070B50D4604469E
:1032F000524B1B6803F007038B420BD24F4A1368F3
:1033000023F007030B431360136803F007038B429A
:1033100040F08D80236813F0020F17D013F0040FD4
:1033200004D0474A536843F4E0635360236813F0C2
:10333000080F04D0424A536843F460535360404A34
:10334000536823F0F003A1680B435360236813F024
:10335000010F31D06368012B20D0022B25D0384AD1
:10336000126812F0020F64D035494A6822F0030255
:1033700013434B60FFF70EF90646314B5B6803F0D1
:103380000C036268B3EB820F16D0FFF703F9801BC2
:1033900041F288339842F0D9032045E0284A126868
:1033A00012F4003FE0D101203EE0254A126812F0FD
:1033B000007FD9D1012037E0204B1B6803F00703C1
:1033C000AB420AD91D4A136823F007032B4313604D
:1033D000136803F00703AB422DD1236813F0040FE9
:1033E00006D0174A536823F4E063E1680B43536047
:1033F000236813F0080F07D0114A536823F4605371
:10340000216943EAC1035360FFF736FF0C4B5B6849
:10341000C3F303130B4AD35CD8400B4B18600B4B20
:103420001868FFF773F8002070BD01207047012075
:10343000FAE70120F8E70120F6E700BF002002408C
:1034400000100240F0BA0008401400204814002088
:10345000014B1868704700BF4014002008B5FFF703
:10346000F7FF044B5B68C3F30223034AD35CD840E5
:1034700008BD00BF0010024000BB000808B5FFF700
:10348000E7FF044B5B68C3F3C223034AD35CD84015
:1034900008BD00BF0010024000BB000870B582B03C
:1034A0000446036813F0010F36D03F4BDB6913F07D
:1034B000805F49D13C4BDA6942F08052DA61DB69C6
:1034C00003F080530193019B0125384B1B6813F4D3
:1034D000807F3BD0344B1B6A13F4407313D0626877
:1034E00002F440729A420ED02F4A136A23F44070BD
:1034F0002F490126C1F840640026C1F840641062DB
:1035000013F0010F36D1284A136A23F4407361681F
:103510000B431362002D3ED1236813F0020F06D037
:10352000214A536823F44043A1680B435360236846
:1035300013F0100F34D01C4A536823F48003E16861
:103540000B43536000202CE00025BEE7174A1368A8
:1035500043F480731360FFF71DF80646134B1B6896
:1035600013F4807FB6D1FFF715F8801B6428F5D9D6
:10357000032016E0FFF70EF806460B4B1B6A13F00C
:10358000020FC0D1FFF706F8801B41F28833984242
:10359000F3D9032005E0D36923F08053D361BBE75F
:1035A000002002B070BD00BF00100240007000405B
:1035B0000000424200B587B08446384B0FCB0DF176
:1035C000180E0EE90F0040F20123ADF80430BCF1F3
:1035D000020F55D0BCF1100F06D0BCF1010F2DD059
:1035E000002007B05DF804FB2D4B5A68186810F0F6
:1035F0008070F6D0C2F3834306A90B4413F8100C75
:1036000012F4803F16D0264B5B68C3F340430B4453
:1036100013F8142C234BB3FBF2F303FB00F0204B05
:103620005B6813F4800FDCD140001F4BA3FB00301C
:103630004008D6E71D4B03FB00F0F0E7184B1B6A70
:1036400040F202321A40B2F5817F24D003F4407375
:10365000B3F5007F04D0B3F5407F09D00020C0E768
:103660000F4A526A12F0020FF5D049F64040B8E70F
:103670000B4B186810F40030B3D04FF22440B0E781
:10368000FFF7FCFE064B5B68C3F3813301335B003D
:10369000B0FBF3F0A5E74FF40040A2E708BB000839
:1036A0000010024000127A00ABAAAAAA00093D004D
:1036B00070B4036A23F001030362036A46688269F7
:1036C00022F073020C6844EA020523F002028B68C0
:1036D00013430D4CA04209D00B4CA0420DD04660C4
:1036E00085614A684263036270BC704723F0080337
:1036F000CA68134323F00403EEE726F440764A69D0
:1037000032438E691643EAE7002C014030B4036A65
:1037100023F480730362036A4568C26922F073026E
:103720000C68224323F400738C6843EA04230F4C93
:10373000A04209D00D4CA0420ED04560C2614A683B
:10374000C263036230BC704723F40063CC6843EA71
:10375000042323F48063EDE725F440554C6945EAE2
:1037600004158C6945EA0415E7E700BF002C014009
:1037700030B4036A23F480530362036A4468C26965
:1037800022F4E6420D6842EA052223F400538D68D4
:1037900043EA0533074DA84206D04460C2614A6837
:1037A0000264036230BC704724F480444D6944EAEB
:1037B0008514F2E7002C014090F83D30DBB2012B7C
:1037C00027D1022380F83D300268D36843F001031B
:1037D000D3600368114A934210D0B3F1804F0DD0EB
:1037E000A2F59432934209D002F58062934205D04B
:1037F0001A6842F001021A60002070479A6802F0CD
:103800000702062A07D01A6842F001021A60002057
:103810007047012070470020704700BF002C014016
:1038200003681B4A90420AD0B0F1804F07D0A2F53E
:103830009432904203D002F58062904203D123F08B
:1038400070034A681343124A90420AD0B0F1804F85
:1038500007D0A2F59432904203D002F580629042E4
:1038600003D123F44073CA68134323F080034A69E9
:10387000134303608B68C3620B688362044B9842F6
:1038800002D00123436170470B690363F9E700BF6E
:10389000002C014040B310B5044690F83D30F3B120
:1038A000022384F83D30214651F8040BFFF7B8FF9E
:1038B000012384F8463084F83E3084F83F3084F8A1
:1038C000403084F8413084F8423084F8433084F842
:1038D000443084F8453084F83D30002010BD80F835
:1038E0003C30FEF7EFFCDBE70120704730B4036AA1
:1038F00023F010030362036A4468826922F4E642FB
:103900000D6842EA052223F020038D6843EA05137F
:103910000E4DA84209D00D4DA8420ED044608261E0
:103920004A688263036230BC704723F08003CD682D
:1039300043EA051323F04003EDE724F440644D69A6
:1039400044EA85048D6944EA8504E7E7002C0140D8
:1039500038B590F83C30012B60D004460D46012369
:1039600080F83C300C2A1AD8DFE802F00719191940
:103970001D1919193119191944000068FFF798FE2B
:103980002268936943F0080393612268936923F0E6
:10399000040393612268936929690B4393610020B2
:1039A00084F83C0038BD0068FFF7A0FF22689369E7
:1039B00043F4006393612268936923F48063936105
:1039C00022689369296943EA01239361E7E7006864
:1039D000FFF79CFE2268D36943F00803D361226895
:1039E000D36923F00403D3612268D36929690B43A7
:1039F000D361D4E70068FFF7BBFE2268D36943F4C4
:103A00000063D3612268D36923F48063D3612268A1
:103A1000D369296943EA0123D361C0E70220C1E7E2
:103A200001F01F01012303FA01FC036A23EA0C03DE
:103A30000362036A02FA01F10B430362704700005C
:103A400010B50446084651BB94F83E30DBB2013B4A
:103A500018BF0123002B5BD1002839D1022384F841
:103A60003E30012201462068FFF7DAFF23682A4A28
:103A700093423DD02368284A93423ED0B3F1804F11
:103A80003BD0A2F59432934237D002F58062934244
:103A900033D01A6842F001021A60002039E004298C
:103AA00008D008290DD094F84130DBB2013B18BF93
:103AB0000123CFE794F83F30DBB2013B18BF01236D
:103AC000C8E794F84030DBB2013B18BF0123C1E7DF
:103AD000042805D0082807D0022384F84130C0E725
:103AE000022384F83F30BCE7022384F84030B8E773
:103AF0005A6C42F400425A64BCE79A6802F007022A
:103B0000062A07D01A6842F001021A60002000E07D
:103B1000012010BD0020FCE7002C014090F83C3053
:103B2000012B2CD010B4012380F83C30022380F804
:103B30003D3003685A689C6822F0700C0A6842EABB
:103B40000C025A6003680F4A93420AD0B3F1804FC7
:103B500007D0A2F59432934203D002F580629342DB
:103B600004D124F080044A6814439C60012380F847
:103B70003D30002380F83C30184610BC70470220CE
:103B8000704700BF002C014010B50446026813695D
:103B900023F44053C1680B431361836802691343E4
:103BA00042691A430168CB6823F4B05323F00C0335
:103BB0001343CB600268536923F4407381690B435C
:103BC00053610268134B9A4220D0FFF747FC02462C
:103BD00002EB820202EB820263689B00B2FBF3F20B
:103BE0000D48A0FB02314909642303FB11231B018B
:103BF0003233A0FB03235B0903F0F00202EB011256
:103C000003F00F03216813448B6010BDFFF736FCEF
:103C10000246DDE7003801401F85EB512DE9F843EE
:103C200005460F4616469946DDF820802C68246824
:103C300037EA04030CBF4FF0010C4FF0000CB44501
:103C40001FD1B8F1FF3FF1D0B8F1000F05D0FEF75A
:103C5000A1FCA0EB09004045E8D92A68D36823F409
:103C6000D073D3602A68536923F001035361202382
:103C700085F83D3085F83E30002385F83C30032040
:103C800000E00020BDE8F88358B310B5044690F872
:103C90003D300BB3242384F83D302268D36823F4ED
:103CA0000053D3602046FFF76FFF2268136923F4A7
:103CB000904313612268536923F02A0353612268F9
:103CC000D36843F40053D36000202064202384F899
:103CD0003D3084F83E3010BD80F83C30FEF766FB86
:103CE000D8E7012070472DE9F04182B01E4690F8D8
:103CF0003D30DBB2202B54D104460D4690460029BE
:103D000053D0002A53D090F83C30012B51D00123DE
:103D100080F83C3000230364212380F83D30FEF717
:103D200039FC0746A4F82480A4F82680A368B3F5DC
:103D3000805F05D04FF00008002384F83C3012E08B
:103D4000236913B14FF00008F6E7A8460025F3E712
:103D500038F8023B2268C3F308035360E28C92B246
:103D6000013A92B2E284E38C9BB273B100963B4677
:103D7000002280212046FFF751FFE0B9002DE7D057
:103D800015F8012B23685A60E8E700963B460022AD
:103D900040212046FFF742FF78B9202384F83D30C8
:103DA00000E0022002B0BDE8F0810120FAE7012026
:103DB000F8E70220F6E70320F4E70320F2E700002B
:103DC0000C480D490D4A002302E0D458C450043376
:103DD000C4188C42F9D30A4A0A4C002301E013604C
:103DE0000432A242FBD3FEF78FFB00F015F8FDF77B
:103DF000EBFD704700000020FC1D00202CBF0008D8
:103E0000FC1D002060240020FEE70000014B186824
:103E1000704700BF4C14002070B50D4E0D4D761B41
:103E2000B61006D0002455F8043B01349847A6424A
:103E3000F9D1094E094D06F025FA761BB61006D0C9
:103E4000002455F8043B01349847A642F9D170BDCF
:103E500020BF000820BF000828BF000820BF0008BE
:103E6000830730B548D0541E002A3FD00346CAB25B
:103E700001E0013C3AD303F8012B9D07F9D1032C53
:103E80002DD9CDB245EA05250F2C45EA054536D991
:103E9000A4F1100222F00F0C03F1200EE6444FEAC9
:103EA000121C03F1100242E9045542E90255103296
:103EB0007245F8D10CF1010214F00C0F03EB021261
:103EC00004F00F0C13D0ACF1040323F0030304330C
:103ED000134442F8045B9342FBD10CF003042CB171
:103EE000CAB21C4403F8012B9C42FBD130BD64468E
:103EF0001346002CF4D1F9E703461446BFE71A46EF
:103F0000A446E0E70EB430B504466FF000459CB01F
:103F10000B4A1FAB0B49059253F8042B086802A902
:103F2000CDE9013407950495069400F00DF80022C0
:103F3000029B1A701CB0BDE8304003B0704700BF50
:103F40000802FFFF4C1400202DE9F04FD5B00C46BD
:103F50000C9191460E930A9002F0BAFE036818463F
:103F6000179303F0AFFDA3891690190603D52369B3
:103F7000002B00F08F8700242BAB224698464D463D
:103F8000CDE929442893129400230024CDE9143468
:103F90002B78CDE91922CDE91B2218920892002B2B
:103FA00000F0CE81AA4604E01AF8013F002B00F091
:103FB0000981252BF8D1BAEB050640F007819AF864
:103FC0000030002B00F0BC8100234FF0FF324FF097
:103FD0002B0920241F469AF8016007920AF1010A72
:103FE0008DF8833009930AF1010AA6F120035A2BB8
:103FF00000F22081DFE813F0CA021E011E01C50293
:104000001E011E011E01A3021E011E016A00F30211
:104010001E014702D9021E01D4025B005B005B0057
:104020005B005B005B005B005B005B001E011E0130
:104030001E011E011E011E011E01B0011E010B0208
:104040007A00B001B001B0011E011E011E011E0167
:104050009E021E011E01B6001E011E011E01190254
:104060001E014C021E011E013F071E011E011E0102
:104070001E011E011E011E011E01B0011E010B02C8
:104080007C00B001B001B00191027C0075001E01FE
:1040900084021E017002B8005E0275001E01190242
:1040A00072001C071E011E011F071E017200002264
:1040B000A6F130031AF8016B02EB820203EB420215
:1040C000A6F13003092BF5D909928EE70E9B53F820
:1040D000042B002A09920E93C0F2D2819AF8006054
:1040E00081E79AF8006047F020077CE747F0100767
:1040F000BA060E9B40F17D81073323F007031A4671
:104100005B6852F8084B99460E92002BC0F27F85EF
:10411000079B013301F0398054EA090327F0800B33
:1041200000F005850A2C79F1000380F093870123C4
:104130005F4630348DF84F410B930DF24F15079ABF
:104140000B9900238A42B8BF0A4606929DF8832045
:104150000D930F9313931093002A7CD0069B013389
:10416000069378E047F0100717F0200900F032813D
:104170000E9B073323F00703D3F8049053F8084B42
:104180000E93002327F4806B00228DF88320079A7A
:10419000511C00F02A8254EA09012BF0800740F0FC
:1041A0002382002A41F02B80002B40F0C5841BF0B5
:1041B00001030B9300F0548530230DF24F158DF859
:1041C0004F31BCE7BAEB050600F0BA802A9BC8E97C
:1041D000005633442A93299B0133072B299305DC8E
:1041E00008F10808089B33440893E8E60C990A98FC
:1041F00028AA03F0C9FC80B90DF1AC08F2E70C99CC
:104200000A9828AA03F0C0FC002800F08A800D9BC1
:104210001BB10D990A9802F05BFC0C9B9B8913F073
:10422000400F089B18BF4FF0FF330893089855B014
:10423000BDE8F08F002E00F08380012300228DF86E
:10424000EC6006933BAD8DF883200B930D920792A3
:104250000F921392109217F0020302D006990231C6
:10426000069117F0840B07D109990698A1EB000974
:10427000B9F1000F00F336832A9C82B10122C8F8FD
:104280000420299A013401320DF18301072A2A946E
:104290002992C8F8001000F3698308F108087BB17F
:1042A0000223C8F80430299B0234013321AA072BCA
:1042B0002A942993C8F8002000F36C8308F10808B9
:1042C000BBF1800F00F02E82079B0B9AA3EB020B31
:1042D000BBF1000F00F37182FB0500F1C5810B9B60
:1042E000C8F800501C44C8F80430299B2A940133B4
:1042F000072B299300F3EA8208F108087B0705D50C
:10430000099B069A9D1A002D00F35083DDE90832BF
:1043100006998A42ACBF9B185B180893002C7FF467
:104320006EAF002329930D9B1BB10D990A9802F0E3
:10433000CFFB55460DF1AC082B78002B7FF432AE45
:104340002A9B002B3FF469AF0C9C0A98214628AAAF
:1043500003F01AFCA38962E70E9B073323F00702E0
:10436000F2E80234CDE91434DDE9143424F00044D9
:10437000994618460E9221464FF0FF32B64BFCF795
:1043800089FE002840F09684484621464FF0FF32CF
:10439000B14BFCF761FE002840F08C84DDE914018C
:1043A00000220023FCF74EFE002840F0A6879DF86F
:1043B000832000210320A94DA94B27F080070D91F0
:1043C0000690472EC8BF1D4607910B900F91139181
:1043D0001091C1E617F0100340F0628417F040021C
:1043E00000F07B870E9A994652F8044B0E92A4B2C5
:1043F000C7E653F8044B0E93FB0600F141847D069B
:1044000040F13B8444F3C0394B4624B27DE60120A1
:1044100000220E9B069053F8041B3BAD8DF88320C1
:104420008DF8EC100E930B9010E74FF000090E9CE6
:10443000079B54F8045B8DF88390002D00F0EE8606
:104440005A1C00F060851A464946284602F0F8FEDC
:104450000D90002801F09E800D9B9DF883205B1B32
:104460000B9323EAE373CDF81C900E940693CDF8DA
:104470003490CDF83C90CDF84C90CDF840906BE660
:10448000099B5B4209939AF8006047F00407AAE58C
:1044900047F0100B1BF0200900F0AA830E9B073396
:1044A00023F007031A4652F8084BD3F804900E92F3
:1044B000012369E6302278260E9B8DF8842053F87C
:1044C000044B684A0E934FF00009022347F0020B99
:1044D0008DF88560189257E6BD0600F1D683FC067C
:1044E00000F19386780600F15D87B90540F18D866D
:1044F0000E9B089953F8042B554611700E931BE739
:104500009AF800606C2E03BF9AF8016047F020070C
:104510000AF1010A47F0100765E59AF80060682E75
:1045200003BF9AF8016047F400770AF1010A47F0E7
:10453000400758E59AF8006047F0080753E50A9EDF
:10454000304602F0C5FB436818461B9303F0BAFAE5
:10455000034630461C931E4602F0BAFB836819934B
:10456000002E3FF4BBAD199B002B3FF4B7AD199B58
:104570001B78002B3FF4B2AD9AF8006047F48067D7
:1045800031E59AF8006047F001072CE59DF883308B
:10459000002B7FF4A3AD9AF800608DF8834022E5EC
:1045A0009AF8006047F080071DE5524612F8016B4B
:1045B0002A2E01F0EB81A6F13003092B924698BF19
:1045C000002201F203801AF8016B02EB820203EB76
:1045D0004202A6F13003092BF5D9079205E59AF8B6
:1045E00000608DF88390FEE4BB46012B3FF49AAD4A
:1045F000022B54AD12D1189A04F00F03D35C240996
:1046000044EA09744FEA191905F8013D54EA09030F
:10461000F2D154AB5B1B5F460B9390E504F00703AC
:10462000E40844EA49744FEAD909303354EA0901ED
:104630002A4605F8013DF1D11BF0010FE9D0302BDE
:10464000E7D03023023A05F8013C54AB9B1A5F4691
:1046500015460B9373E500BFFFFFEF7F20BB0008FB
:1046600024BB000830BB0008652E40F3E980DDE97B
:10467000140100220023FCF7DBFC002800F0D281AB
:104680000123C8F80430299BBF4A01330134072BAA
:104690002A942993C8F8002000F37A8508F10808C5
:1046A000229B129A934280F2D782169B179A1C443F
:1046B000C8E90023299B2A940133072B299300F38F
:1046C000DD8308F10808129B5D1E002D7FF716AEF2
:1046D000102D41F34181DFF8B4922246494610265D
:1046E000B946299B0F46DDF828B00C9C05E008F17F
:1046F0000808103D102D40F3588501331032072B68
:10470000C8E90076CDE92932F1DD2146584628AACC
:1047100003F03AFA00287FF47AADDDE929320DF191
:10472000AC08E6E7099B069AA3EB020BBBF1000F6E
:104730007FF7CAADBBF1100F41F30580DFF84C9253
:1047400041462046A8464C461023299A0C9DDDF888
:10475000289006E0ABF1100BBBF1100F01F108013E
:1047600019DD01321030072AC1E90043CDE92920C3
:10477000F0DD2946484628AA03F006FA00287FF40F
:1047800046ADDDE92920ABF1100BBBF1100F4FF066
:1047900010032BA9E5DC4546A146884604460132B4
:1047A0005C44072ACDE92924C8F80090C8F804B071
:1047B00000F3188508F1080886E5BBF1100F40F3F7
:1047C0009785DFF8C89141462046A8464C461023FD
:1047D000299A0C9DDDF8289006E0ABF1100BBBF197
:1047E000100F01F1080119DD01321030072AC1E96B
:1047F0000043CDE92920F0DD2946484628AA03F0E8
:10480000C3F900287FF403ADDDE92920ABF1100BDB
:10481000BBF1100F4FF010032BA9E5DC4546A14674
:104820008846044601325C44072ACDE92924C8F8A9
:104830000090C8F804B000F3CE8108F108084BE5F9
:10484000129B012B40F37E810123299E01341E44DB
:10485000072EC8F800502A94C8F80430299600F3AF
:10486000E18108F10808169B0136179A1C44072EAF
:10487000C8E90023CDE9296400F3E18108F10808C3
:104880000022DDE914010023FCF7D2FB002840F0F0
:104890007681129B0136013B01351C44072EC8F876
:1048A00000502996C8F804302A9400F35B8108F17F
:1048B00008081A9B01361C44C8F80430072E24ABA4
:1048C000CDE92964C8F800307FF716AD0C990A9835
:1048D00028AA03F059F900287FF499AC2A9C0DF11D
:1048E000AC080BE5B9F1100F40F35086DDE9292142
:1048F0004046CDE91D36B84610244F460C9EA946C9
:104900000A9D04E0103F102F00F1080016DD01326F
:104910001F4B1031072AC0E90034CDE92921F1DD10
:104920003146284628AA03F02FF900287FF46FACFF
:10493000DDE92921103F102F2BA8E8DC4D46DDE9E9
:104940001D36B9464746804609EB0104013210493D
:10495000072ACDE92924C8F80490C8F8001000F30C
:10496000C3839DF8832008F1080886E40C990A980F
:1049700028AA1D9303F008F900287FF448AC2A9C6C
:104980001D9B0DF1AC088AE460BB000874BB0008F5
:1049900064BB00080C990A9828AA03F0F5F80028CF
:1049A0007FF435AC2A9C0DF1AC0889E4102D40F35E
:1049B000C4861026299B0A9FDDF8309004E0103D44
:1049C000102D08F1080817DD0133B84A1034072B01
:1049D000C8E90026CDE92934F1DD4946384628AA40
:1049E00003F0D2F800287FF412ACDDE92934103D41
:1049F000102D0DF1AC08E7DC0133AC4A2C44072B39
:104A0000CDE92934C8F80450C8F800207FF77EACFF
:104A10000C990A9828AA03F0B7F800287FF4F7AB9E
:104A20002A9C73E42299002940F36F83DDF84090BB
:104A3000129B9945A8BF9946B9F1000F0BDD299B40
:104A40004C440133072BC8E900592A94299300F3F9
:104A50001D8508F10808109EB9F1000FA8BFA6EB4C
:104A60000906002E00F32582DDF840B07805AB443E
:104A700000F15F82229B129A934202DBF90740F118
:104A80007684169A17991444C8E90012299A2A9430
:104A90000132072A299200F3138508F10808129AB7
:104AA000AE18A6EB0B06D51AAE42A8BF2E46002EB6
:104AB0000DDD299B34440133072BC8F800B0C8F83A
:104AC00004602A94299300F3718508F10808002EE8
:104AD000A8BFAD1B002D7FF711AC102D40F33C8714
:104AE000DFF8CC91224649461026B946299B0F464D
:104AF000DDF828B00C9C05E008F10808103D102DE9
:104B000040F3538301331032072BC8E90076CDE917
:104B10002932F1DD2146584628AA03F035F800284D
:104B20007FF475ABDDE929320DF1AC08E6E7079BB0
:104B3000002B7FF4FCAA5F46002354AD07930B9330
:104B4000FFF7FDBAFA073FF57FAE0123299E013436
:104B50001E44072EC8F800502A94C8F8043029963D
:104B60007FF7A5AE0C990A9828AA03F00DF8002843
:104B70007FF44DABDDE929640DF1AC0899E6129B99
:104B80005D1E002D7FF795AE102D40F3DF86224687
:104B900007974FF0100BDFF818910A9C0C9F05E067
:104BA00008F10808103D102D40F37F8301361032C4
:104BB000072EC8E9009BCDE92962F1DD3946204680
:104BC00028AA02F0E1FF00287FF421ABDDE9296289
:104BD0000DF1AC08E6E70C990A9828AA02F0D4FF78
:104BE00000287FF414AB2A9C0DF1AC08FFF774BBCE
:104BF0001BF010030E9A3AD11BF0400133D052F84B
:104C0000044B99460E920123A4B2FFF7BDBA2D239F
:104C100064428DF88330BB464FF0010369EB4909CC
:104C2000FFF7B5BA0C990A9828AA02F0ADFF002840
:104C30007FF4EDAADDE929640DF1AC0813E60C99C7
:104C40000A9828AA02F0A0FF00287FF4E0AADDE974
:104C500029640DF1AC0813E6FD077FF54FAB24E5A1
:104C600054ADFFF76CBA1BF4007940F08A8352F818
:104C7000044B01230E92FFF787BAB80500F19B831E
:104C80004FEAE4794B46FFF740BA0E9B089853F879
:104C9000041BC2175546C1E900020E93FFF74CBB37
:104CA0000E9B53F8044B0E93FFF76BBA64BB0008DE
:104CB00074BB0008DDE9140102460B46FCF7EAF973
:104CC000002840F0E985612E00F07D85412E00F03E
:104CD0008B84079B013300F08F8326F02003472B42
:104CE000069300F08F85DDE9141247F480730F936B
:104CF0001346002BC0F2B0850B9300238B461D9307
:104D00000D93069B462B00F0E983452B00F046856A
:104D100007990B9B01910221009126A9049123A9D7
:104D2000039122A95A460A98029100F005FF069BBA
:104D30000546472B40F03A8617F0010FB9460F9F02
:104D400040F0FE84269B5B1B1293069B472B00F0D2
:104D50006E83069B462B00F0F083229B1093109BE2
:104D6000069A013B412A229300F0BB850021F2B252
:104D7000002B8DF89020B6BF2D222B22109B8DF892
:104D80009120B8BFC3F10103092B40F39B850DF1BE
:104D90009F0C6246B64F1C46104687FB0312D9177C
:104DA000C1EBA20101EB8102A3EB42023032632C82
:104DB00000F8012C0B4600F1FF32ECDC3033811E91
:104DC000DBB28C4502F8013C40F2F9850DF192010D
:104DD00001E012F8013B944501F8013BF9D10DF1D6
:104DE000A1030DF192021B1A134424AA9B1A1A93D1
:104DF000129B1A9A012B1A440B9240F381850B9B4C
:104E0000169A13440B9300230B9A29F4806722EA25
:104E1000E27247F480770F930692139310931D9BD1
:104E2000002B40F02C839DF883200793FFF794B963
:104E3000BB46FFF72FBB8F4B189317F0200900F0EC
:104E4000F5800E9B073323F00703D3F8049053F843
:104E5000084B0E93F80709D554EA090306D030230E
:104E60008DF8856047F002078DF88430022327F41F
:104E7000806BFFF789B9804B1893DEE70C990A988D
:104E800028AA02F081FE00287FF4C1A92A9C0DF116
:104E9000AC0818E440210A9801F026FF0C9B18602A
:104EA0001861002800F0978540230C9A5361FFF7A2
:104EB00062B8102E40F37685DFF8C091424648462E
:104EC0002146A846B9464FF0100B0746299B0A9C7D
:104ED0000C9D04E00832103E102E40F31382013383
:104EE0001031072BC2E9007BCDE92931F2DD2946DB
:104EF000204628AA02F048FE00287FF488A9DDE9B0
:104F000029312BAAE7E72846CDF81C900E9402F031
:104F1000D9FD20EAE0739DF883200B90CDF8349002
:104F2000CDF83C90CDF84C90CDF840900693FFF72B
:104F300013B9129B4246DDF84C80EB185E4607938E
:104F4000CDF82CA010972146199FDDF87090DDF860
:104F500028A0DDF830B00F9B1395B8F1000F2ED0CC
:104F600083BB013F08F1FF381B9B4944C2E900396C
:104F7000299B2A910133072B299360DC0832079B78
:104F800038789B1B8342A8BF0346002B1C460BDDD1
:104F90002998194401300728C2E900632A91299011
:104FA00000F3148138780832002CB4BF0546051B85
:104FB000002D0BDC06440F9BB8F1000FD0D1002B65
:104FC00000F026820F9B013B0F93CDE7102D40F39D
:104FD0009D841024299804E0103D102D02F1080250
:104FE00016DD0130254B10310728C2E90034CDE928
:104FF0002901F1DD5946504628AA02F0C5FD0028D6
:105000007FF405A9DDE92901103D102D2BAAE8DC6C
:1050100001301A4B29440728CDE929015560136056
:1050200000F34182387808320644C4E717F01003D1
:1050300000F0A0800E9B53F8044B0E930AE75946EC
:10504000504628AA02F0A0FD00287FF4E0A82A9983
:105050002BAA94E700230BF480620696CDF82CA0CF
:10506000CDF834801E469246DDF8648054AF14E0DB
:105070006766666630BB000844BB000874BB000866
:105080000023204649460A22FCF71AF80A2C79F137
:1050900000031BD3044689462F4620460A220023DC
:1050A0004946FCF70DF830327D1E013607F8012C19
:1050B000BAF1000FE4D098F800309E42E0D1FF2E04
:1050C000DED00A2C79F1000380F0308154AB5B1BF9
:1050D000DDF82CA0CDF8648012965F46069EDDF8C0
:1050E00034800B93FFF72BB80C990A9828AA1D93CC
:1050F00002F04AFD00287FF48AA89DF883202A9CAC
:105100001D9B0DF1AC08FFF7B8B80123C8F80430B7
:10511000299BBC4A01330134072B2A942993C8F8F0
:10512000002000F3178108F10808002940F086806C
:10513000129A07F0010313433FF4E0A8169B179956
:105140001A19C8E90013299B2A920133072B2993C6
:1051500000F3378108F10808129901338C18072BE6
:10516000CDE92934C8F80050C8F804107FF7C4A866
:10517000FFF7ACBB17F0400200F0A5800E9A9946ED
:1051800052F8044B0E92A4B264E6BB46FEF7CABFC7
:105190000C990A9828AA02F0F7FC00287FF437A897
:1051A0002A9C0DF1AC08FFF77BBA14463A464F46ED
:1051B000914601332C44072BC8F80090C8F80450DE
:1051C000CDE929347FF798A8FFF780BB59465046B0
:1051D00028AA02F0D9FC00287FF419A838782A9967
:1051E0002BAAE1E60C990A9828AA02F0CDFC002827
:1051F0007FF40DA82A9C0DF1AC08FFF765B8012BD0
:10520000BB467FF4F5A9FEF792BF0E9B089953F8B1
:10521000042B554611600E93FFF78EB8062B2946D6
:1052200028BF06232A4607950D950693764D0E94C2
:105230000B930F9113911091FEF78EBF169B179849
:105240001A19C8E90003299B2A920133072B2993D5
:1052500000F3B78008F108080029BFF67DAF4E4281
:10526000103180F2A98341461024A846DFF89C91B2
:10527000DDF828B00C9D04E00831103E102E40F3FC
:10528000A78201331032072BC1E90094CDE92932FE
:10529000F2DD2946584628AA02F076FC00287EF462
:1052A000B6AFDDE929322BA9E7E71446079F01369F
:1052B0002C44072ECDE92964C8F80090C8F80450A2
:1052C0007FF7F5AA4EE417F400790E9B66D053F8E9
:1052D000044B91460E93E4B2BCE517F400790E9BA3
:1052E00057D053F8044B91460E93E4B2FEF749BFF2
:1052F000299ADFF81891FFF795BA2D228DF88320AF
:10530000FFF757B8454690463A460C464F469146F9
:1053100001333444072BCDE92934C8F80090C8F88C
:1053200004605CDC08F10808FFF79EBB1C9B1B991E
:10533000ED1A1A46284602F0F3FB98F801300BB13B
:1053400008F10108204649460A2200230026FBF7FF
:10535000B7FE9FE60C990A9828AA02F015FC0028CF
:105360007EF455AF22992A9C0DF1AC08DDE6129A25
:10537000AE18A6EB0B06D51AAE42A8BF2E46FFF715
:10538000A6BB52F8044B894601230E92E4B2FEF705
:10539000FBBE53F8044B0E93FEF7F3BE53F8044BD9
:1053A0000E9357E50E9B089953F8042B5546118030
:1053B0000E93FEF7C1BF44F3C0194B4664B2FEF72B
:1053C000A4BE0C990A9828AA02F0DEFB00287EF4FD
:1053D0001EAFDDE9293222990DF1AC083CE70C99AA
:1053E0000A9828AA02F0D0FB00287EF410AF2A9C6D
:1053F0000DF1AC08FFF738BB0623079326F0200316
:10540000069370E460BB000858BB000874BB00083A
:10541000DDE91235EB189E42B346199790460C46CB
:1054200028BF9B46DDF82CA0109FFFF723BB229BD3
:10543000DA1C109302DB079A934204DD023E26F049
:10544000200306938BE4109B129A9342C0F2C28011
:1054500019F0010F00F01D82169A13440B9319F4F2
:10546000806F00F01482109B6726002B76DC0B9B6C
:1054700023EAE373069300230F931393CFE42D22C3
:1054800000238DF883200793FEF768BE0C990A98D5
:1054900028AA02F079FB00287EF4B9AE2A9C0DF10F
:1054A000AC08FFF7D8BA5946504628AA02F06CFB60
:1054B00000287EF4ACAE38782A992BAA06447AE507
:1054C0000C990A9828AA02F05FFB00287EF49FAE90
:1054D000229B2A9C0DF1AC08FFF7E1BA07990B9BC0
:1054E00001910321009126A9049123A9039122A9E6
:1054F0005A460A98029100F01FFB03780546302BAC
:1055000000F01682229B079AB94613440F9FEC18AD
:105510005846002200230B99FBF78AFD08B1234669
:1055200011E4269BA342BFF40EAC30215A1C2692F4
:105530001970269B9C42F9D805E4229A002A109201
:1055400040F30E82079909F001030B4340F07E817E
:105550006626109B0B9319F4806F88D019990B78ED
:10556000FF2B00F025820024109A204604E0013031
:105570000131FF2B00F05981934280F25681D21AFB
:105580004B78002BF3D10B780134F2E7DDE92921C8
:10559000FFF7DAB9079B9DF883200E9406930B93CF
:1055A00007900F9013901090FEF7D6BD0C990A98B3
:1055B00028AA02F0E9FA00287EF429AE229D129B67
:1055C0002A9C0DF1AC085D1BFFF781BA00230793FD
:1055D000FEF70BBD129B169A9A18109B0B92002B8C
:1055E00040F385816726B6E730238DF88430582351
:1055F0008DF88530079B47F00204632B00F3C480CD
:1056000000233BAD0D9347F481730F93DDE9141232
:105610001346002B2746C0F284800B9300238B4651
:105620001D9326F020030693612E00F01881412E71
:105630007FF467AB22AA58460B9902F0F9F90022D1
:105640004FF07F53FAF740FF02460B46CDE9102397
:1056500000220023FBF7ECFC08B101232293AD4BA1
:105660000B93079BCDE912A6CDE91E78DDE9106703
:10567000AB46DDF82CA003F1FF39109506E00022BF
:10568000002309F1FF39FBF7D3FCE8B90022A24B54
:1056900030463946FAF718FF0F460646FBF726F95B
:1056A0000446FAF7A7FE0B46024639463046FAF79B
:1056B00053FD1AF80430B9F1FF3FD8464D4606466F
:1056C0000F460BF8013BDAD1304639460022934BA6
:1056D000A946DDF848A0109DCDF84880CDE910011D
:1056E000DDF87C80139E1E9FFBF7CAFC80BBDDE9C2
:1056F00010010022894BFBF79BFC08B1E10727D47E
:105700004B46002B06DB302201335B440BF8012BA8
:105710005B45FBD1ABEB0503B94612930F9FFFF737
:1057200014BB26F0200306932D22DDE914349B469A
:1057300004F100431D920B9376E7299BFFF75CB9B8
:10574000079BEC18E4E6299ADFF8D491FFF727B815
:10575000129B26930B9B1BF8012CD97B5B468A423C
:1057600009D1302003F8010C269B5A1E269213F80B
:10577000012C9142F6D0392A0BBF0B9A0132927A52
:10578000D2B203F8012CC5E70A98591C01F0ACFA13
:105790000546002800F017810D9034E702210091A2
:1057A00007995A464C1C26A9049123A9039122A9C2
:1057B0000B9B0A980194029100F0BEF90546B94688
:1057C0002C440F9FA4E630238DF8843078230FE714
:1057D0004546884601333244072BCDE92932C8F8C3
:1057E0000090C8F804607FF7B5AC0C990A9828AA15
:1057F00002F0CAF900287EF40AADDDE929320DF184
:10580000AC08A9E4079B002B08BF0123079347F4CA
:1058100080730F93159B002BC0F2B680DDF850B05B
:105820000D900B931D90FFF773BA1991109213907E
:105830000F940F9A139B1C9913440B9A01FB03239B
:105840000B9323EAE3730693FFF7E9BA169B6626E8
:10585000D31819440B917EE600230D9364E722AA26
:1058600058460B9902F0E4F800224FF07F53FAF704
:105870002BFE02460B46CDE9102300220023FBF746
:10588000D7FB08B101232293264B0B93E9E6672649
:10589000EDE5109B0B93E2E5159B0320002BB8BFB1
:1058A0002D224FF00003A8BF9DF8832019460D93C9
:1058B0001D4D1E4BB8BF8DF8832027F08007069042
:1058C000FEF77FBD002944D130228DF892200DF1E2
:1058D0009302303302F8013B24ABD31A1A93FFF73B
:1058E00087BA06F10F020121D2B2FFF741BAC3F124
:1058F00001031A4422EAE27367260B920693BAE583
:1059000019F0010F3FF47FAAFFF779BA2998FFF742
:105910007FBB00BF44BB0008000030400000E03FF8
:1059200074BB000830BB000828BB00082CBB000873
:105930005846002200230B99FBF77AFB00287FF4DE
:10594000E1AD079BC3F101032293DCE5DFF89890FA
:10595000ADE40DF19202BCE7299BDFF88C9028E4BE
:10596000079A09F0010959EA020304D101236626C6
:1059700006930B937FE5169B662601331A4422EAB1
:10598000E2730B92069376E50D90CDE60E9B9AF8A6
:105990000160924653F8042B0E9342EAE273079398
:1059A000FEF721BB299BDFF84090B1E4079C06E796
:1059B00000230F9313933CE7DFF82C900AE70223B0
:1059C0001A93FFF715BA0C998B8943F040021346DE
:1059D0008A81FEF724BC4FF0FF320C2308920A9A0A
:1059E0001360FEF723BC00BF74BB0008024B13B169
:1059F000024800F005B8704700000000056A000882
:105A0000002301461A46184602F03CB92DE9F04F32
:105A100003690C6985B0A342C0F28980013C01F1A1
:105A20001405A30000F11408019355F8243058F828
:105A3000242001338A469A4208EB84018146B2FB56
:105A4000F3F605EB840702913AD30021AE464046B7
:105A50000A46A34603955EF8045B0468ABB206FBF6
:105A600003132D0C190C06FB05119BB2D21A1FFA59
:105A700084FC94448AB2C2EB144202EB2C421FFA1B
:105A80008CFC4CEA0243774540F8043B4FEA114155
:105A90004FEA2242DFD2019B5C4658F80330039D57
:105AA00073B9029B043B984504D307E0984504F181
:105AB000FF3403D253F80429002AF7D0C9F8104064
:105AC0005146484601F08CFE00282CDB404600235E
:105AD000013655F8041BD0F800C08AB29A1A1FFA92
