:020000040800F2
:1000000000500020F12F0008F51E0008F71E000820
:10001000F91E0008FB1E0008FD1E0008000000007D
:10002000000000000000000000000000FF1E0008AB
:10003000011F000800000000031F0008051F000842
:1000400039300008393000083930000839300008EC
:1000500039300008393000083930000839300008DC
:1000600039300008393000083930000839300008CC
:1000700039300008393000083930000839300008BC
:1000800039300008393000083930000839300008AC
:10009000393000083930000839300008393000089C
:1000A000393000083930000839300008393000088C
:1000B000393000083930000839300008393000087C
:1000C000393000083930000839300008393000086C
:1000D000393000083930000839300008393000085C
:1000E00039300008393000083930000800000000BD
:1000F0000000000000000000000000000000000000
:0C01000000000000000000005FF808F1A3
:1001100010B5054C237833B9044B13B10448AFF341
:1001200000800123237010BDF41D0020000000009A
:10013000B494000808B5034B1BB103490348AFF35F
:10014000008008BD00000000F81D0020B4940008E5
:1001500081F0004102E000BF83F0004330B54FEA78
:1001600041044FEA430594EA050F08BF90EA020FE5
:100170001FBF54EA000C55EA020C7FEA645C7FEA78
:10018000655C00F0E2804FEA5454D4EB5555B8BF9B
:100190006D420CDD2C4480EA020281EA030382EA0C
:1001A000000083EA010180EA020281EA0303362D9E
:1001B00088BF30BD11F0004F4FEA01314FF4801C71
:1001C0004CEA113102D0404261EB410113F0004F83
:1001D0004FEA03334CEA133302D0524263EB43033A
:1001E00094EA050F00F0A780A4F10104D5F1200ED8
:1001F0000DDB02FA0EFC22FA05F2801841F1000133
:1002000003FA0EF2801843FA05F359410EE0A5F106
:1002100020050EF1200E012A03FA0EFC28BF4CF037
:10022000020C43FA05F3C01851EBE37101F00045ED
:1002300007D54FF0000EDCF1000C7EEB00006EEBFA
:100240000101B1F5801F1BD3B1F5001F0CD3490884
:100250005FEA30004FEA3C0C04F101044FEA4452DB
:1002600012F5800F80F09A80BCF1004F08BF5FEA62
:10027000500C50F1000041EB045141EA050130BD42
:100280005FEA4C0C404141EB0101013C28BFB1F554
:10029000801FE9D291F0000F04BF01460020B1FA9F
:1002A00081F308BF2033A3F10B03B3F120020CDA72
:1002B0000C3208DD02F1140CC2F10C0201FA0CF050
:1002C00021FA02F10CE002F11402D8BFC2F1200CB5
:1002D00001FA02F120FA0CFCDCBF41EA0C0190406B
:1002E000E41AA2BF01EB0451294330BD6FEA0404B4
:1002F0001F3C1CDA0C340EDC04F11404C4F120029F
:1003000020FA04F001FA02F340EA030021FA04F3B0
:1003100045EA030130BDC4F10C04C4F1200220FA07
:1003200002F001FA04F340EA0300294630BD21FA45
:1003300004F0294630BD94F0000F83F4801306BF0B
:1003400081F480110134013D4EE77FEA645C18BFFF
:100350007FEA655C29D094EA050F08BF90EA020F96
:1003600005D054EA000C04BF1946104630BD91EA8E
:10037000030F1EBF0021002030BD5FEA545C05D191
:100380004000494128BF41F0004130BD14F58004D0
:100390003CBF01F5801130BD01F0004545F0FE4144
:1003A00041F470014FF0000030BD7FEA645C1ABF79
:1003B000194610467FEA655C1CBF0B46024650EAB0
:1003C000013406BF52EA033591EA030F41F40021DC
:1003D00030BD00BF90F0000F04BF0021704730B562
:1003E0004FF4806404F132044FF000054FF0000137
:1003F00050E700BF90F0000F04BF0021704730B5F8
:100400004FF4806404F1320410F0004548BF4042CC
:100410004FF000013EE700BF42004FEAE2014FEA21
:1004200031014FEA02701FBF12F07F4393F07F4FFC
:1004300081F06051704732F07F4208BF704793F0FF
:100440007F4F04BF41F40021704730B54FF4607412
:1004500001F0004521F000411CE700BF50EA010215
:1004600008BF704730B54FF000050AE050EA0102BE
:1004700008BF704730B511F0004502D5404261EB2E
:1004800041014FF4806404F132045FEA915C3FF46F
:10049000D8AE4FF003025FEADC0C18BF03325FEA0C
:1004A000DC0C18BF033202EBDC02C2F1200300FABD
:1004B00003FC20FA02F001FA03FE40EA0E0021FAE2
:1004C00002F11444BDE600BF70B54FF0FF0C4CF4D0
:1004D000E06C1CEA11541DBF1CEA135594EA0C0F82
:1004E00095EA0C0F00F0DEF82C4481EA030621EABD
:1004F0004C5123EA4C5350EA013518BF52EA0335F8
:1005000041F4801143F4801338D0A0FB02CE4FF0A9
:100510000005E1FB02E506F00042E0FB03E54FF0D9
:100520000006E1FB03569CF0000F18BF4EF0010ED1
:10053000A4F1FF04B6F5007F64F5407404D25FEACD
:100540004E0E6D4146EB060642EAC62141EA555180
:100550004FEAC52040EA5E504FEACE2EB4F1FD0CC2
:1005600088BFBCF5E06F1ED8BEF1004F08BF5FEA40
:10057000500E50F1000041EB045170BD06F00046F2
:1005800046EA010140EA020081EA0301B4EB5C049F
:10059000C2BFD4EB0C0541EA045170BD41F4801197
:1005A0004FF0000E013C00F3AB8014F1360FDEBFBC
:1005B000002001F0004170BDC4F10004203C35DA98
:1005C0000C341BDC04F11404C4F1200500FA05F31B
:1005D00020FA04F001FA05F240EA020001F00042BC
:1005E00021F0004110EBD37021FA04F642EB060132
:1005F0005EEA430E08BF20EAD37070BDC4F10C045C
:10060000C4F1200500FA04F320FA05F001FA04F21F
:1006100040EA020001F0004110EBD37041F100010B
:100620005EEA430E08BF20EAD37070BDC4F1200516
:1006300000FA05F24EEA020E20FA04F301FA05F27E
:1006400043EA020321FA04F001F0004121FA04F226
:1006500020EA020000EBD3705EEA430E08BF20EAF6
:10066000D37070BD94F0000F0FD101F00046400030
:1006700041EB010111F4801F08BF013CF7D041EAB2
:10068000060195F0000F18BF704703F000465200B6
:1006900043EB030313F4801F08BF013DF7D043EA87
:1006A0000603704794EA0C0F0CEA135518BF95EA3D
:1006B0000C0F0CD050EA410618BF52EA4306D1D1C4
:1006C00081EA030101F000414FF0000070BD50EAE3
:1006D000410606BF1046194652EA430619D094EA6D
:1006E0000C0F02D150EA013613D195EA0C0F05D157
:1006F00052EA03361CBF104619460AD181EA0301AB
:1007000001F0004141F0FE4141F470014FF0000062
:1007100070BD41F0FE4141F4780170BD70B54FF0FD
:10072000FF0C4CF4E06C1CEA11541DBF1CEA13557D
:1007300094EA0C0F95EA0C0F00F0A7F8A4EB05045F
:1007400081EA030E52EA03354FEA013100F0888056
:100750004FEA03334FF0805545EA131343EA12631F
:100760004FEA022245EA111545EA10654FEA0026D4
:100770000EF000419D4208BF964244F1FD0404F58D
:10078000407402D25B084FEA3202B61A65EB0305E9
:100790005B084FEA32024FF480104FF4002CB6EBA6
:1007A000020E75EB030E22BFB61A754640EA0C0026
:1007B0005B084FEA3202B6EB020E75EB030E22BF66
:1007C000B61A754640EA5C005B084FEA3202B6EBA7
:1007D000020E75EB030E22BFB61A754640EA9C0066
:1007E0005B084FEA3202B6EB020E75EB030E22BF36
:1007F000B61A754640EADC0055EA060E18D04FEAF4
:10080000051545EA16754FEA06164FEAC30343EA93
:1008100052734FEAC2025FEA1C1CC0D111F4801F60
:100820000BD141EA00014FF000004FF0004CB6E759
:1008300011F4801F04BF01430020B4F1FD0C88BFF8
:10084000BCF5E06F3FF6AFAEB5EB030C04BFB6EB03
:10085000020C5FEA500C50F1000041EB045170BDF6
:100860000EF0004E4EEA113114EB5C04C2BFD4EB23
:100870000C0541EA045170BD41F480114FF0000EA7
:10088000013C90E645EA060E8DE60CEA135594EA23
:100890000C0F08BF95EA0C0F3FF43BAF94EA0C0F26
:1008A0000AD150EA01347FF434AF95EA0C0F7FF49B
:1008B00025AF104619462CE795EA0C0F06D152EAEF
:1008C00003353FF4FDAE1046194622E750EA4106D3
:1008D00018BF52EA43067FF4C5AE50EA41047FF4E4
:1008E0000DAF52EA43057FF4EBAE12E74FEA410247
:1008F000B2F1E04324BFB3F5001CDCF1FE5C0DD97E
:1009000001F0004C4FEAC0024CEA5070B2F1004FC7
:1009100040EB830008BF20F00100704711F0804FCA
:1009200021D113F13872BCBF01F00040704741F48F
:1009300080114FEA5252C2F11802C2F1200C10FA93
:100940000CF320FA02F018BF40F001004FEAC12377
:100950004FEAD32303FA0CFC40EA0C0023FA02F31B
:100960004FEA4303CCE77FEA625307D150EA0133F1
:100970001EBF4FF0FE4040F44000704701F00040C1
:1009800040F0FE4040F40000704700BF80F000409F
:1009900002E000BF81F0004142001FBF5FEA410357
:1009A00092EA030F7FEA226C7FEA236C6AD04FEA57
:1009B0001262D2EB1363C1BFD2184140484041409C
:1009C000B8BF5B42192B88BF704710F0004F40F44E
:1009D000000020F07F4018BF404211F0004F41F46A
:1009E000000121F07F4118BF494292EA030F3FD036
:1009F000A2F1010241FA03FC10EB0C00C3F1200349
:100A000001FA03F100F0004302D5494260EB4000D7
:100A1000B0F5000F13D3B0F1807F06D340084FEA42
:100A2000310102F10102FE2A51D2B1F1004F40EB37
:100A3000C25008BF20F0010040EA0300704749009F
:100A400040EB0000013A28BFB0F5000FEDD2B0FA3C
:100A500080FCACF1080CB2EB0C0200FA0CF0AABF5F
:100A600000EBC25052421843BCBFD04018437047FD
:100A700092F0000F81F4000106BF80F40000013203
:100A8000013BB5E74FEA41037FEA226C18BF7FEADA
:100A9000236C21D092EA030F04D092F0000F08BF1C
:100AA0000846704790EA010F1CBF0020704712F003
:100AB0007F4F04D1400028BF40F00040704712F142
:100AC00000723CBF00F50000704700F0004343F0A7
:100AD000FE4040F4000070477FEA226216BF0846DD
:100AE0007FEA23630146420206BF5FEA412390EAA0
:100AF000010F40F4800070474FF0000304E000BF96
:100B000010F0004348BF40425FEA000C08BF704746
:100B100043F0964301464FF000001CE050EA01020A
:100B200008BF70474FF000030AE000BF50EA01021F
:100B300008BF704711F0004302D5404261EB41010C
:100B40005FEA010C02BF84460146002043F0B64331
:100B500008BFA3F18053A3F50003BCFA8CF2083A56
:100B6000A3EBC25310DB01FA02FC634400FA02FC5F
:100B7000C2F12002BCF1004F20FA02F243EB020066
:100B800008BF20F00100704702F1200201FA02FCC8
:100B9000C2F1200250EA4C0021FA02F243EB0200BB
:100BA00008BF20EADC7070474FF0FF0C1CEAD052FF
:100BB0001EBF1CEAD15392EA0C0F93EA0C0F6FD0C0
:100BC0001A4480EA010C400218BF5FEA41211ED09E
:100BD0004FF0006343EA501043EA5111A0FB01318A
:100BE0000CF00040B1F5000F3EBF490041EAD3715F
:100BF0005B0040EA010062F17F02FD2A1DD8B3F1DB
:100C0000004F40EBC25008BF20F00100704790F049
:100C1000000F0CF0004C08BF49024CEA502040EA9B
:100C200051207F3AC2BFD2F1FF0340EAC250704761
:100C300040F400004FF00003013A5DDC12F1190F9F
:100C4000DCBF00F000407047C2F10002410021FA11
:100C500002F1C2F1200200FA02FC5FEA310040F129
:100C6000000053EA4C0308BF20EADC70704792F0A2
:100C7000000F00F0004C02BF400010F4000F013ADA
:100C8000F9D040EA0C0093F0000F01F0004C02BFD5
:100C9000490011F4000F013BF9D041EA0C018FE744
:100CA0000CEAD15392EA0C0F18BF93EA0C0F0AD04A
:100CB00030F0004C18BF31F0004CD8D180EA010070
:100CC00000F00040704790F0000F17BF90F0004F09
:100CD000084691F0000F91F0004F14D092EA0C0FEB
:100CE00001D142020FD193EA0C0F03D14B0218BF7E
:100CF000084608D180EA010000F0004040F0FE40C4
:100D000040F40000704740F0FE4040F4400070475F
:100D10004FF0FF0C1CEAD0521EBF1CEAD15392EADE
:100D20000C0F93EA0C0F69D0A2EB030280EA010CCE
:100D300049024FEA402037D04FF0805343EA111167
:100D400043EA10130CF000408B4238BF5B0042F1C5
:100D50007D024FF4000C8B4224BF5B1A40EA0C006A
:100D6000B3EB510F24BFA3EB510340EA5C00B3EB9C
:100D7000910F24BFA3EB910340EA9C00B3EBD10F8A
:100D800024BFA3EBD10340EADC001B0118BF5FEADC
:100D90001C1CE0D1FD2A3FF650AF8B4240EBC25005
:100DA00008BF20F0010070470CF0004C4CEA5020C6
:100DB0007F32C2BFD2F1FF0340EAC250704740F415
:100DC00000004FF00003013A37E792F0000F00F007
:100DD000004C02BF400010F4000F013AF9D040EA85
:100DE0000C0093F0000F01F0004C02BF490011F419
:100DF000000F013BF9D041EA0C0195E70CEAD15311
:100E000092EA0C0F08D142027FF47DAF93EA0C0FF7
:100E10007FF470AF084676E793EA0C0F04D14B02DB
:100E20003FF44CAF08466EE730F0004C18BF31F08D
:100E3000004CCAD130F000427FF45CAF31F0004387
:100E40007FF43CAF5FE700BF844641EA000313F044
:100E5000030349D1403A23D30B6803604B684360D6
:100E60008B688360CB68C3600B6903614B69436126
:100E70008B698361CB69C3610B6A03624B6A43620E
:100E80008B6A8362CB6AC3620B6B03634B6B4363F6
:100E90008B6B8363CB6BC36340304031403ADBD212
:100EA00030320BD30B6803604B6843608B68836000
:100EB000CB68C36010301031103AF3D20C3205D336
:100EC00051F8043B40F8043B043AF9D2043208D00C
:100ED000D2071CBF11F8013B00F8013B01D30B887E
:100EE00003806046704700BF082A13D38B07B1D038
:100EF00010F00303AED0C3F10403D21ADB071CBF0A
:100F000011F8013B00F8013BA4D331F8023B20F873
:100F1000023B9FE7043AD9D3013A11F8013B00F8AC
:100F2000013BF9D20B7803704B7843708B78837058
:100F3000604670474FF0FF3C06E000BF4FF0010CE9
:100F400002E000BF4FF0010C4DF804CD4FEA410C18
:100F50007FEA6C5C4FEA430C18BF7FEA6C5C1BD0E5
:100F600001B050EA410C0CBF52EA430C91EA030F66
:100F700002BF90EA020F0020704710F1000F91EAC3
:100F8000030F58BF994208BF90422CBFD8176FEA91
:100F9000E37040F0010070474FEA410C7FEA6C5C5F
:100FA00002D150EA013C07D14FEA430C7FEA6C5C66
:100FB000D6D152EA033CD3D05DF8040B704700BF92
:100FC0008446104662468C461946634600E000BFE0
:100FD00001B5FFF7B7FF002848BF10F1000F01BDB2
:100FE0004DF808EDFFF7F4FF0CBF012000205DF87D
:100FF00008FB00BF4DF808EDFFF7EAFF34BF012002
:1010000000205DF808FB00BF4DF808EDFFF7E0FF9A
:1010100094BF012000205DF808FB00BF4DF808EDEB
:10102000FFF7CEFF94BF012000205DF808FB00BF52
:101030004DF808EDFFF7C4FF34BF012000205DF834
:1010400008FB00BF4FEA410C7FEA6C5C02D150EA1A
:10105000013C0AD14FEA430C7FEA6C5C02D152EAB0
:10106000033C02D14FF0000070474FF00100704781
:101070004FEA410212F5001215D211D56FF47873C0
:10108000B3EB625212D94FEAC12343F0004343EA63
:10109000505311F0004F23FA02F018BF404270473E
:1010A0004FF00000704750EA013005D111F00040C8
:1010B00008BF6FF0004070474FF00000704700BF5E
:1010C00053B94AB9002908BF00281CBF4FF0FF31AF
:1010D0004FF0FF3000F076B9ADF1080C6DE904CEA9
:1010E00000F006F8DDF804E0DDE9022304B0704703
:1010F0002DE9F047089E0D4604468846002B4DD149
:101100008A42944668D9B2FA82F252B101FA02F3E5
:10111000C2F1200120FA01F10CFA02FC41EA0308B5
:1011200094404FEA1C41B8FBF1F71FFA8CFE01FB1B
:10113000178807FB0EF0230C43EA084398420AD9AC
:101140001CEB030307F1FF3580F01E81984240F24B
:101150001B81023F63441B1AB3FBF1F001FB103308
:1011600000FB0EFEA4B244EA0344A6450AD91CEBD8
:10117000040400F1FF3380F00981A64540F20681A6
:10118000644402380021A4EB0E0440EA07401EB17B
:101190000023D440C6E90043BDE8F0878B4208D95C
:1011A000002E00F0EE800021C6E900050846BDE8EB
:1011B000F087B3FA83F100294AD1AB4202D38242CD
:1011C00000F2FC80841A65EB030301209846002E90
:1011D000E2D0C6E90048DFE702B9FFDEB2FA82F2E8
:1011E000002A40F09180A1EB0C0001214FEA1C473E
:1011F0001FFA8CFEB0FBF7F307FB1300250C45EA42
:1012000000450EFB03F0A84208D91CEB050503F1CD
:10121000FF3802D2A84200F2CE8043462D1AB5FB19
:10122000F7F007FB10550EFB00FEA4B244EA05449C
:10123000A64508D91CEB040400F1FF3502D2A645EF
:1012400000F2B6802846A4EB0E0440EA03409EE775
:10125000C1F120078B4022FA07FC4CEA030C25FA67
:1012600007FA4FEA1C49BAFBF9F820FA07F309FB21
:1012700018AA8D401FFA8CFE1D4300FA01F308FBEB
:101280000EF02C0C44EA0A44A04202FA01F20BD9F7
:101290001CEB040408F1FF3A80F08880A04240F281
:1012A0008580A8F102086444241AB4FBF9F009FB14
:1012B000104400FB0EFEADB245EA0444A64508D931
:1012C0001CEB040400F1FF356CD2A6456AD9023844
:1012D000644440EA0840A0FB0295A4EB0E04AC4233
:1012E000C846AE4656D353D0002E69D0B3EB0802A1
:1012F00064EB0E0422FA01F304FA07F71F43CC4013
:10130000C6E90074002147E70CFA02FCC2F1200193
:1013100025FA01F34FEA1C4720FA01F195400D43ED
:10132000B3FBF7F107FB11331FFA8CFE280C40EAE0
:10133000034001FB0EF3834204FA02F408D91CEBCC
:10134000000001F1FF382FD283422DD902396044C9
:10135000C01AB0FBF7F307FB1300ADB245EA004536
:1013600003FB0EF0A84208D91CEB050503F1FF387A
:1013700016D2A84214D9023B6544281A43EA014117
:1013800038E73146304607E72F46E4E61846F9E6E7
:101390004B45A9D2B9EB020865EB0C0E0138A3E767
:1013A0004346EAE7284694E74146D1E7D0467BE743
:1013B0006444023847E7023B65442FE7084606E7E6
:1013C0003146E9E6704700BF30B589B00024049487
:1013D0000594069407941C4B9A6942F020029A6186
:1013E0009A6902F020020192019A9A6942F004027D
:1013F0009A619A6902F004020292029A9A6942F092
:1014000008029A619B6903F008030393039B0F4D45
:101410002246F821284601F0AFF9702304930C4BC3
:101420000593069404A90B4801F094F8F82304935B
:101430000123059306940223079304A9284601F08B
:1014400089F809B030BD00BF00100240000C014017
:10145000000011100008014008B50C49FFF758FCC6
:10146000FEF7DAFF07F0E6FDFFF740FA0849FFF75D
:101470004FFC0849FFF790FA01464FF07E50FFF706
:1014800047FC0549FFF786FA08BD00BF00401C462F
:1014900000E076450FCF5B3B3393884310B504469D
:1014A000012806D0022C23D0032C3AD0042C51D092
:1014B00010BD102302220021084600F06BFB102310
:1014C00003220021184600F065FB102304220021AE
:1014D000202000F05FFB18232E4A14211E2000F06C
:1014E0003BFB10232C4A1B21602000F035FBD9E781
:1014F000102305220021084600F04CFB1023062291
:101500000021184600F046FB1823244A14211E200F
:1015100000F022FB1023224A1B21602000F01CFB5C
:10152000C2E7102307220021084600F033FB1023F6
:1015300004220021184600F02DFB1823194A14211B
:101540001E2000F009FB102308221B21602000F060
:1015500021FBABE7102300221146104600F01AFBD6
:10156000102301220021184600F014FB18230E4A14
:1015700014211E2000F0F0FA102309221B21602004
:1015800000F008FB102343221B21682000F082FAA0
:101590008EE700BF101E0020D0940008201E0020FF
:1015A000D4940008301E0020401E002072B6FEE7D2
:1015B00000B585B000230193029303930F48104AAE
:1015C000026083600122027303754FF46021C161E0
:1015D0004360026100F0DCFE60B9012301930293D5
:1015E0000723039301A9054800F04CFD20B905B07D
:1015F0005DF804FBFFF7DAFFFFF7D8FF501E00206D
:101600000024014000B585B00023019302930393A9
:101610000F48104A026083600122027303754FF481
:101620006021C1614360026100F0B2FE60B9002335
:10163000019301220292039301A9054800F022FDC3
:1016400020B905B05DF804FBFFF7B0FFFFF7AEFF70
:10165000801E00200028014008B50A480A4B03609C
:101660004FF4E133436000238360C36003610822C9
:1016700042618361C36101F08BFC00B908BDFFF7D3
:1016800095FF00BFB01E00200038014000B595B0A6
:10169000282200210DEB020001F0FAFC0023059343
:1016A000069307930893099301930293039304937A
:1016B00001220A924FF480330B930E920222119270
:1016C00012934FF4E01313930AA801F071F8C8B90C
:1016D0000F23059302210691002307934FF48062A4
:1016E0000892099305A801F0A1FA68B902230193B1
:1016F0004FF44043039301A801F074FB30B915B0D7
:101700005DF804FBFFF752FFFFF750FFFFF74EFFB6
:101710002DE9F04F83B000F079FCFFF7B7FFFFF73A
:1017200053FEFFF745FFFFF76DFFFFF795FF00F052
:10173000ADFA012000F02CF900F042F9664800F003
:1017400087FD664800F084FD642000F083FC0025DE
:10175000A9462C46A1E0604800F090FC0444013604
:10176000632EF8DD5E4B83FB0423E017C0EB6310B0
:10177000FFF7C6F94FF06651FFF716FAFEF74CFE79
:1017800051A3D3E90023FEF79FFE06460F465046BD
:10179000FEF742FE32463B46FEF7E0FCFFF7A6F8B6
:1017A00082460BF1010BBBF57A7F02DA0026344644
:1017B000D6E74C495046FFF7ABFA8246484B83FBCD
:1017C0000423E217C2EB63124749484801F0B2FC18
:1017D0005046FEF721FE06460F4602460B46444998
:1017E000444801F0A7FC44495046FFF7DDF9FEF7F5
:1017F00013FECDE9000132463B4633A1D1E9000199
:10180000FEF7AAFC82468B4602460B46DDE9000144
:10181000FEF784FF02460B463849394801F08AFC3E
:101820002BA3D3E9002350465946FEF777FF024623
:101830000B4630463946FEF771FFFFF757F8FFF7C2
:101840000BFEFEF7E9FD02460B462E492E4801F03D
:1018500071FCA9452AD1B8F5806F2ADD4A46A94610
:10186000A8F2014140F2FE33994224D913464A4678
:10187000A8F6010040F2FE3188421ED91D461346EB
:10188000A8F6014840F20242904518D84FF00409EA
:101890004846FFF703FE00F093F8104800F0EEFB17
:1018A00080464FF0000B4FF0000A7CE700F0AEF8E6
:1018B000D1E70122D4E70223DAE70325E0E7A946CE
:1018C0001D46E5E7AFF300806666666666660A4019
:1018D000000000000088C340501E0020801E002031
:1018E0001F85EB5100007A44D8940008101E002098
:1018F000DC940008201E002000401C46E4940008F0
:10190000301E0020EC940008401E002038B504462C
:1019100059B1012210211D4800F02EFF002208219C
:101920001A4800F029FF002513E000221021174873
:1019300000F022FFF2E700224021144800F01CFFD3
:1019400001228021114800F017FF6400E4B2013544
:10195000EDB2072D0DD8002280210C4800F00CFFBD
:1019600014F0800FE7D001224021084800F004FF66
:10197000E6E7064C01220821204600F0FDFE012288
:101980001021204600F0F8FE38BD00BF000C0140D9
:1019900010B5044610B1012C09D010BD0021C8209B
:1019A000FFF7B4FF0021A120FFF7B0FFF3E700210C
:1019B000C020FFF7ABFF0021A020FFF7A7FFECE757
:1019C00038B500250DE0104B03EBC4030121585D31
:1019D000FFF79CFF0134E4B214F0800FF3D001351F
:1019E000EDB2072D0FD8A5F150000021C0B2FFF7CE
:1019F0008DFF00210846FFF789FF00211020FFF727
:101A000085FF0024E8E738BDF41E002008B500205B
:101A10000BE0094A02EBC302002111540133DBB28F
:101A200013F0800FF5D00130C0B2072801D8002391
:101A3000F6E7FFF7C5FF08BDF41E00204FEAD10C02
:101A400001F0070101238B40DBB2044A02EBC00026
:101A500010F80C20134300F80C307047F41E0020DF
:101A60004FEAD10C01F00701012303FA01F1C9B2D9
:101A7000074A02EBC00010F80C30DB43DBB200F881
:101A80000C300B4300F80C30DB4300F80C3070478F
:101A9000F41E00202DE9F04F83B0804689461F4692
:101AA00013F0070318BF012303EBD703790801FBE9
:101AB00003F3DBB20193203A5FFA82FB4C464FF00E
:101AC000000A2EE00BEB4B03204A02EB830313F8D2
:101AD0000A5036E01E4B03EB0B1313F80A5030E0AC
:101AE00021464046FFF7BCFF6D00EDB20134E4B281
:101AF000A4EB0903BB420BD00136F6B2072E0CD87B
:101B000015F0800FECD021464046FFF797FFEBE73A
:101B100008F101085FFA88F84C460AF1010A5FFAF9
:101B20008AFA019B9A450ED20C2FCBD0102FD1D020
:101B3000182F08D10BEBCB03064A02EB830313F8F3
:101B40000A500026DAE703B0BDE8F08FF4940008ED
:101B500068990008589F0008F8B504460F461546D6
:101B60001E4600E001352A78A2F12000C0B25E28AE
:101B70000FD8334639462046FFF78CFF04EB560456
:101B8000E4B2C6F180039C42ECDD0237FFB20024D0
:101B9000E8E7F8BD2DE9F04F85B083460D46039286
:101BA0009946DB0802930091074600230193029AAD
:101BB0001346013AD2B20292002B5BD0039B09FB81
:101BC00003FACAF3C70A019B9A445FFA8AFA0133FF
:101BD000DBB201934FF0000832E0284B03EB0A130D
:101BE00013F80860002416E00AEBCA03244A02EB4B
:101BF000C30313F80860F5E7224B03EBCA1313F88D
:101C00000860EFE729463846FFF72AFF76080135D6
:101C1000EDB20134E4B2072C07D816F0010FF1D071
:101C200029463846FFF70AFFF0E70137FFB2A7EB76
:101C30000B03994518D008F101085FFA88F8009D58
:101C4000C845B4D2B9F1100FC7D0B9F1180FCBD035
:101C5000B9F1200FD0D0B9F1400F0BD10A4B03EBF3
:101C60004A2313F80860BDE7009B0833DBB20093FA
:101C70005F46E0E705B0BDE8F08F00BF0000002040
:101C800060010020380200203804002010B5404CCC
:101C900000222021204600F06FFDC82000F0DAF974
:101CA00001222021204600F067FD0021AE20FFF731
:101CB0002DFE00210846FFF729FE00211020FFF726
:101CC00025FE00214020FFF721FE00218120FFF7A3
:101CD0001DFE0021CF20FFF719FE0021A120FFF7F4
:101CE00015FE0021C820FFF711FE0021A620FFF7F6
:101CF0000DFE0021A820FFF709FE00213F20FFF77D
:101D000005FE0021D320FFF701FE00210846FFF762
:101D1000FDFD0021D520FFF7F9FD00218020FFF710
:101D2000F5FD0021D920FFF7F1FD0021F120FFF79B
:101D3000EDFD0021DA20FFF7E9FD00211220FFF779
:101D4000E5FD0021DB20FFF7E1FD00214020FFF74A
:101D5000DDFD00212020FFF7D9FD00210220FFF743
:101D6000D5FD00218D20FFF7D1FD00211420FFF7C4
:101D7000CDFD0021A420FFF7C9FD0021A620FFF71B
:101D8000C5FD0021AF20FFF7C1FDFFF73FFE10BDED
:101D9000000C014082B00E4B9A6942F001029A6138
:101DA0009A6902F001020092009ADA6942F08052C8
:101DB000DA61DB6903F080530193019B054A5368A4
:101DC00023F0E06343F00073536002B0704700BF3C
:101DD000001002400000014000B589B000230493C8
:101DE0000593069307930368204A934205D0204A3F
:101DF00093421ED009B05DF804FB1E4B9A6942F471
:101E000000729A619A6902F400720092009A9A69CB
:101E100042F004029A619B6903F004030193019B61
:101E2000022304930323059304A9134800F092FBB3
:101E3000E0E7104B9A6942F480629A619A6902F471
:101E400080620292029A9A6942F004029A619B6946
:101E500003F004030393039B0123049303230593DB
:101E600004A9054800F076FBC4E700BF0024014048
:101E700000280140001002400008014010B586B063
:101E8000002302930393049305930268174B9A422D
:101E900001D006B010BD03F558439A6942F4804260
:101EA0009A619A6902F480420092009A9A6942F01B
:101EB00004029A619B6903F004030193019B4FF4B0
:101EC000007302930223039303230593084C02A992
:101ED000204600F03FFB4FF48063029300230393FE
:101EE000049302A9204600F035FBD2E700380140F8
:101EF00000080140FEE7FEE7FEE7FEE7FEE7704769
:101F00007047704708B500F093F808BD012070478E
:101F100008B501F093F8162303604FF0FF3008BDB9
:101F200008B54FF0FF31FFF7F3FFFEE770B50C4641
:101F30001646002506E0AFF30080214601F8010BAC
:101F400001350C46B542F6DB304670BD70B50C4627
:101F50001646002504E014F8010BAFF300800135AC
:101F6000B542F8DB304670BD08B503460B4A12682F
:101F700042B10A4A106803446A46934206D8074AA7
:101F8000136008BD054A06491160F2E701F056F8F2
:101F90000C2303604FF0FF30F3E700BF74230020F1
:101FA000C82300204FF0FF3070474FF400534B60C0
:101FB00000207047012070470020704770470000E4
:101FC00010B504460E4B18784FF47A73B3FBF0F358
:101FD0000C4A1068B0FBF3F000F0A8FA68B90F2CB7
:101FE00001D901200AE0002221464FF0FF3000F025
:101FF00065FA054B1C60002000E0012010BD00BF09
:102000003C140020381400204014002008B5074A72
:10201000136843F010031360032000F03DFA002022
:10202000FFF7CEFFFFF7B6FE002008BD00200240FC
:10203000034A1168034B1B780B441360704700BFC1
:10204000782300203C140020014B1868704700BF23
:102050007823002038B50446FFF7F6FF0546B4F1B3
:10206000FF3F02D0044B1B781C44FFF7EDFF401BE1
:10207000A042FAD338BD00BF3C1400200368D86CDE
:102080007047000030B482B00022019290F8242002
:10209000012A00F091800346012280F824204A683A
:1020A000062A2DD80468606B02EB8202053A4FF0D5
:1020B0001F0C0CFA02FC20EA0C000D6805FA02F273
:1020C000024362630A68092A3AD91C68E06802EB95
:1020D00042021E3A4FF0070C0CFA02FC20EA0C00F8
:1020E0008D6805FA02F20243E2600A68103A012A9A
:1020F00036D90020002283F8242002B030BC70477B
:102100000C2A0ED80568286B02EB8202233A1F24A2
:10211000944020EA04000C6804FA02F202432A63A5
:10212000D0E70568E86A02EB8202413A1F24944036
:1021300020EA04000C6804FA02F20243EA62C1E7F2
:102140001C68206902EB42024FF0070C0CFA02FCFB
:1021500020EA0C008D6805FA02F202432261C4E70E
:102160001A681648824205D09A6A42F020029A62A2
:102170000120BFE7906810F4000F1BD1906840F475
:10218000000090600A68102A01D00020B2E70C4AD3
:1021900012680C49A1FB0212920C02EB820252005F
:1021A000019202E0019A013A0192019A002AF9D1C2
:1021B00000209FE700209DE702209EE700240140C9
:1021C0003814002083DE1B4330B583B00023019315
:1021D00003689A6812F0010F33D104469A6842F0FE
:1021E00001029A60184B1B68184AA2FB03239B0C40
:1021F000019302E0019B013B0193019B002BF9D16C
:10220000FFF722FF054623689B6813F0010F16D1E4
:10221000FFF71AFF431B022BF5D923689B6813F0C5
:10222000010FF0D1A36A43F01003A362E36A43F005
:102230000103E362002384F82430012002E000203F
:1022400000E0002003B030BD3814002083DE1B43C3
:1022500090F82430012B68D010B50446012380F893
:102260002430FFF7B1FF00285BD1A36A23F4407349
:1022700023F0010343F48073A36223682C4A934242
:1022800027D0A26A22F48012A2625A6812F4806FE8
:1022900005D0A26A22F4405242F48052A262A26A9D
:1022A00012F4805F2BD0E26A22F00602E262002282
:1022B00084F824206FF002021A6023689A6802F4FE
:1022C0006022B2F5602F1DD09A6842F480129A60A5
:1022D0002AE0A2F58062526812F4702FD1D0A26A6F
:1022E00042F48012A262134A526812F4806FD6D070
:1022F000A26A22F4405242F48052A262CFE7002246
:10230000E262D4E70A4A934204D09A6842F4A002F7
:102310009A6009E0A2F58062526812F4702FD3D15E
:10232000F3E7002384F8243010BD0220704700BF7B
:10233000002801400024014038B503689A6812F073
:10234000010F01D1002038BD04469A6822F0010235
:102350009A60FFF779FE054623689B6813F0010F2A
:1023600013D0FFF771FE431B022BF5D923689B683E
:1023700013F0010FF0D0A36A43F01003A362E36AE5
:1023800043F00103E3620120DDE70020DBE700000A
:1023900000287BD070B50446836A002B4DD02046C0
:1023A000FFF7CAFFA36A13F0100369D1002867D1B1
:1023B000A26A22F4885222F0020242F00202A262D1
:1023C0006268E1690A43217B42EA4102A568B5F5EA
:1023D000807F02D0012D36D01D46267D012E35D0BE
:1023E0002668716821F46941294371602568AE68E7
:1023F000274931401143A960A168B1F5807F01D020
:10240000012902D12369013B1B052568E96A21F4F2
:1024100070010B43EB62236899681E4B0B409A4294
:1024200025D0A36A23F0120343F01003A362E36AEA
:1024300043F00103E362012027E0C36280F8243007
:10244000FFF7CAFCABE74FF48075C6E731B9A16965
:10245000013945EA413141F40065C1E7A16A41F023
:102460002001A162E16A41F00101E162B8E70023C5
:10247000E362A36A23F0030343F00103A36204E0D1
:10248000A36A43F01003A362012070BD01207047CE
:10249000FDF7E1FFFE0E1FFF074AD36823F4E06358
:1024A0001B041B0C000200F4E060034343F0BF6315
:1024B00043F40033D360704700ED00E000B5194BE2
:1024C000DB68C3F30223C3F1070CBCF1040F28BF80
:1024D0004FF0040C03F1040EBEF1060F18D9033BB4
:1024E0004FF0FF3E0EFA0CFC21EA0C0199400EFA67
:1024F00003F322EA0303194300280BDB0901C9B2E5
:1025000000F1604000F5614080F800135DF804FBC5
:102510000023E5E700F00F000901C9B2024B19548E
:10252000F4E700BF00ED00E014ED00E00138B0F189
:10253000807F0BD24FF0E0235861054AF02182F8EA
:1025400023100020986107221A617047012070470C
:1025500000ED00E070B582B00024A446A6E0804DF6
:10256000AA4210D007D97F4DAA420CD005F580357C
:10257000AA4208D013E0A5F58015AA4203D005F5BC
:102580007025AA4207D18A68002A58D0012A51D062
:102590004361082403E0A5F58015AA42F3D0BEF1FB
:1025A000FF0F4ED80646BEF1FF0F4CD84FEA8C0203
:1025B00033680F25954023EA050304FA02F213431A
:1025C00033604B6813F0805F6ED0674B9A6942F0BE
:1025D00001029A619B6903F001030193019B4FEA99
:1025E0009C02951C614B53F825600CF003039D0081
:1025F0000F23AB4026EA03065D4B984229D003F532
:102600008063984200F08E8003F58063984200F06A
:102610008B8003F58063984219D004231AE0CC68BC
:10262000BDE7CC680434BAE7CC680834B7E7CC68B7
:102630000C34B4E703610824B1E70024AFE70424B5
:10264000ADE7061DAFE7ACF108029200B0E7032347
:1026500000E00023AB4033430232444D45F82230C2
:102660004B6813F4803F61D0424A136843EA0E037B
:1026700013604B6813F4003F5ED03E4A536843EA50
:102680000E0353604B6813F4801F5BD0394A936884
:1026900043EA0E0393604B6813F4001F58D0354A89
:1026A000D36843EA0E03D3600CF1010C0A6832FAD6
:1026B0000CF353D0012303FA0CF302EA030E33EABE
:1026C0000202F1D14A68122A3FF649AF122A3FF6B8
:1026D00066AF01A555F822F0872500081F260008DF
:1026E000292600083B2600089F2500089F25000892
:1026F0009F2500089F2500089F2500089F250008AA
:102700009F2500089F2500089F2500089F25000899
:102710009F2500089F2500089F2500082326000804
:102720002F260008012395E7022393E7114A136837
:1027300023EA0E0313609CE70E4A536823EA0E0354
:1027400053609FE70B4A936823EA0E039360A2E766
:10275000084AD36823EA0E03D360A5E702B070BD30
:102760000000221000003110001002400000014063
:1027700000080140000401400AB1016170470904EA
:102780000161704782B0084B1B68084AA2FB032313
:102790005B0A00FB03F3019300BF019B5A1E0192E9
:1027A000002BF9D102B0704738140020D34D6210CD
:1027B000002800F0F18170B582B00446036813F080
:1027C000010F2CD0994B5B6803F00C03042B1DD038
:1027D000964B5B6803F00C03082B12D06368B3F5CB
:1027E000803F41D0002B55D103F1804303F50433E2
:1027F0001A6822F480321A601A6822F480221A6061
:1028000037E08A4B5B6813F4803FE7D0874B1B6847
:1028100013F4003F03D06368002B00F0BF812368EE
:1028200013F0020F75D0814B5B6813F00C0F5FD073
:102830007E4B5B6803F00C03082B54D02369002BFC
:1028400000F08A807A4B01221A60FFF7FDFB0546F3
:10285000764B1B6813F0020F75D1FFF7F5FB401B99
:102860000228F5D903209EE1704A136843F48033AF
:102870001360636843B3FFF7E7FB05466B4B1B68C8
:1028800013F4003FCBD1FFF7DFFB401B6428F5D9E1
:10289000032088E1B3F5A02F09D0644B1A6822F415
:1028A00080321A601A6822F480221A60E1E703F18C
:1028B0008043A3F53C331A6842F480221A601A68F8
:1028C00042F480321A60D4E7FFF7BEFB0546574B4F
:1028D0001B6813F4003FA2D0FFF7B6FB401B64282F
:1028E000F5D903205FE1514B5B6813F4803FA5D11C
:1028F0004E4B1B6813F0020F03D02369012B40F0ED
:102900004F814A4A136823F0F803616943EAC1031F
:102910001360236813F0080F33D0A369002B5CD039
:10292000434B0122C3F88024FFF78EFB05463F4B43
:102930005B6A13F0020F21D1FFF786FB401B0228D0
:10294000F5D903202FE1394A136823F0F8036169B0
:1029500043EAC1031360DCE7354B00221A60FFF73E
:1029600073FB0546314B1B6813F0020FD1D0FFF704
:102970006BFB401B0228F5D9032014E10120FFF76F
:1029800001FF236813F0040F00F09680274BDB69EA
:1029900013F0805F34D1254BDA6942F08052DA615E
:1029A000DB6903F080530193019B0125214B1B68D8
:1029B00013F4807F26D0E368012B3DD0002B53D148
:1029C00003F1804303F504331A6A22F001021A620C
:1029D0001A6A22F004021A6233E0154B0022C3F88F
:1029E0008024FFF731FB0546104B5B6A13F0020FA2
:1029F000C7D0FFF729FB401B0228F5D90320D2E0FE
:102A00000025D3E70B4A136843F480731360FFF784
:102A10001BFB0646074B1B6813F4807FCBD1FFF7E7
:102A200013FB801B6428F5D90320BCE00010024092
:102A300000004242007000405F4A136A43F0010305
:102A40001362E36833B3FFF7FFFA06465A4B1B6A7B
:102A500013F0020F2FD1FFF7F7FA801B41F28833F2
:102A60009842F3D903209EE0052B09D0524B1A6AF5
:102A700022F001021A621A6A22F004021A62E0E7E6
:102A80004D4B1A6A42F004021A621A6A42F00102BD
:102A90001A62D6E7FFF7D8FA0646474B1B6A13F0CF
:102AA000020F08D0FFF7D0FA801B41F2883398421A
:102AB000F3D9032077E0E5B9E369002B72D03E4AF1
:102AC000526802F00C02082A56D0022B17D03B4B5A
:102AD00000221A66FFF7B8FA0446374B1B6813F05A
:102AE000007F47D0FFF7B0FA001B0228F5D903207A
:102AF00059E0314AD36923F08053D361DCE72F4B8F
:102B000000221A66FFF7A0FA05462B4B1B6813F04C
:102B1000007F06D0FFF798FA401B0228F5D9032062
:102B200041E0236AB3F5803F1AD023494B6823F470
:102B30007413226A606A024313434B601F4B0122E5
:102B40001A66FFF781FA04461B4B1B6813F0007FDF
:102B50000ED1FFF779FA001B0228F5D9032022E0F5
:102B6000154A536823F40033A1680B435360DCE734
:102B7000002018E0002016E0012B16D00E4B5B68F9
:102B800003F48031226A914211D103F47013626A16
:102B900093420ED1002006E001207047012002E0A0
:102BA000012000E0002002B070BD0120FBE7012001
:102BB000F9E70120F7E700BF0010024000004242A1
:102BC00086B0164B0FCB0DF1180C0CE90F0040F23C
:102BD0000123ADF80430124B5B6803F00C02082AA5
:102BE00002D0104806B07047C3F38342624412F823
:102BF000100C13F4803F0CD0094B5B68C3F34043C7
:102C0000634413F8143C074A02FB00F0B0FBF3F0F6
:102C1000E8E7054B03FB00F0E4E700BFCCAC00089D
:102C20000010024000127A0000093D00002800F068
:102C3000A08070B50D460446524B1B6803F0070395
:102C40008B420BD24F4A136823F007030B431360E8
:102C5000136803F007038B4240F08D80236813F064
:102C6000020F17D013F0040F04D0474A536843F4FF
:102C7000E0635360236813F0080F04D0424A53689E
:102C800043F460535360404A536823F0F003A16853
:102C90000B435360236813F0010F31D06368012B9D
:102CA00020D0022B25D0384A126812F0020F64D0CF
:102CB00035494A6822F0030213434B60FFF7C4F919
:102CC0000646314B5B6803F00C036268B3EB820F7E
:102CD00016D0FFF7B9F9801B41F288339842F0D93A
:102CE000032045E0284A126812F4003FE0D1012099
:102CF0003EE0254A126812F0007FD9D1012037E06A
:102D0000204B1B6803F00703AB420AD91D4A136826
:102D100023F007032B431360136803F00703AB4250
:102D20002DD1236813F0040F06D0174A536823F4FB
:102D3000E063E1680B435360236813F0080F07D08A
:102D4000114A536823F46053216943EAC103536075
:102D5000FFF736FF0C4B5B68C3F303130B4AD35CDE
:102D6000D8400B4B18600B4B1868FFF729F900206F
:102D700070BD012070470120FAE70120F8E701202B
:102D8000F6E700BF0020024000100240B4AC00088B
:102D90003814002040140020014B1868704700BF11
:102DA0003814002008B5FFF7F7FF044B5B68C3F346
:102DB0000223034AD35CD84008BD00BF0010024084
:102DC000C4AC000808B5FFF7E7FF044B5B68C3F32A
:102DD000C223034AD35CD84008BD00BF00100240A4
:102DE000C4AC000870B582B00446036813F0010F4C
:102DF00036D03F4BDB6913F0805F49D13C4BDA6939
:102E000042F08052DA61DB6903F080530193019B49
:102E10000125384B1B6813F4807F3BD0344B1B6A71
:102E200013F4407313D0626802F440729A420ED0D9
:102E30002F4A136A23F440702F490126C1F84064D9
:102E40000026C1F84064106213F0010F36D1284A01
:102E5000136A23F4407361680B431362002D3ED163
:102E6000236813F0020F06D0214A536823F440432D
:102E7000A1680B435360236813F0100F34D01C4A31
:102E8000536823F48003E1680B43536000202CE077
:102E90000025BEE7174A136843F480731360FFF7F9
:102EA000D3F80646134B1B6813F4807FB6D1FFF7A7
:102EB000CBF8801B6428F5D9032016E0FFF7C4F88F
:102EC00006460B4B1B6A13F0020FC0D1FFF7BCF88C
:102ED000801B41F288339842F3D9032005E0D3697F
:102EE00023F08053D361BBE7002002B070BD00BF68
:102EF00000100240007000400000424210B504463D
:102F00000268136923F44053C1680B43136183685B
:102F10000269134342691A430168CB6823F4B05332
:102F200023F00C031343CB600268536923F440730E
:102F300081690B4353610268134B9A4220D0FFF71B
:102F400031FF024602EB820202EB820263689B00C1
:102F5000B2FBF3F20D48A0FB02314909642303FBE5
:102F600011231B013233A0FB03235B0903F0F002A2
:102F700002EB011203F00F03216813448B6010BDB4
:102F8000FFF720FF0246DDE7003801401F85EB51C7
:102F900058B310B5044690F83D300BB3242384F8A1
:102FA0003D302268D36823F40053D3602046FFF7F6
:102FB000A5FF2268136923F49043136122685369C3
:102FC00023F02A0353612268D36843F40053D3608B
:102FD00000202064202384F83D3084F83E3010BD6A
:102FE00080F83C30FEF74AFFD8E701207047000028
:102FF0000C480D490D4A002302E0D458C450043354
:10300000C4188C42F9D30A4A0A4C002301E0136029
:103010000432A242FBD3FEF7D1FF00F015F8FEF711
:1030200077FB704700000020F41D0020F4B000087A
:10303000F41D0020C4230020FEE70000014B1868A7
:10304000704700BF4414002070B50D4E0D4D761B27
:10305000B61006D0002455F8043B01349847A64228
:10306000F9D1094E094D06F025FA761BB61006D0A7
:10307000002455F8043B01349847A642F9D170BDAD
:10308000E8B00008E8B00008F0B00008E8B00008B8
:10309000830730B548D0541E002A3FD00346CAB239
:1030A00001E0013C3AD303F8012B9D07F9D1032C31
:1030B0002DD9CDB245EA05250F2C45EA054536D96F
:1030C000A4F1100222F00F0C03F1200EE6444FEAA7
:1030D000121C03F1100242E9045542E90255103274
:1030E0007245F8D10CF1010214F00C0F03EB02123F
:1030F00004F00F0C13D0ACF1040323F003030433EA
:10310000134442F8045B9342FBD10CF003042CB14E
:10311000CAB21C4403F8012B9C42FBD130BD64466B
:103120001346002CF4D1F9E703461446BFE71A46CC
:10313000A446E0E70EB430B504466FF000459CB0FD
:103140000B4A1FAB0B49059253F8042B086802A9E0
:10315000CDE9013407950495069400F00DF800229E
:10316000029B1A701CB0BDE8304003B0704700BF2E
:103170000802FFFF441400202DE9F04FD5B00C46A3
:103180000C9191460E930A9002F0BAFE036818461D
:10319000179303F0AFFDA3891690190603D5236991
:1031A000002B00F08F8700242BAB224698464D461B
:1031B000CDE929442893129400230024CDE9143446
:1031C0002B78CDE91922CDE91B2218920892002B09
:1031D00000F0CE81AA4604E01AF8013F002B00F06F
:1031E0000981252BF8D1BAEB050640F007819AF842
:1031F0000030002B00F0BC8100234FF0FF324FF075
:103200002B0920241F469AF8016007920AF1010A4F
:103210008DF8833009930AF1010AA6F120035A2B95
:1032200000F22081DFE813F0CA021E011E01C50270
:103230001E011E011E01A3021E011E016A00F302EF
:103240001E014702D9021E01D4025B005B005B0035
:103250005B005B005B005B005B005B001E011E010E
:103260001E011E011E011E011E01B0011E010B02E6
:103270007A00B001B001B0011E011E011E011E0145
:103280009E021E011E01B6001E011E011E01190232
:103290001E014C021E011E013F071E011E011E01E0
:1032A0001E011E011E011E011E01B0011E010B02A6
:1032B0007C00B001B001B00191027C0075001E01DC
:1032C00084021E017002B8005E0275001E01190220
:1032D00072001C071E011E011F071E017200002242
:1032E000A6F130031AF8016B02EB820203EB4202F3
:1032F000A6F13003092BF5D909928EE70E9B53F8FE
:10330000042B002A09920E93C0F2D2819AF8006031
:1033100081E79AF8006047F020077CE747F0100744
:10332000BA060E9B40F17D81073323F007031A464E
:103330005B6852F8084B99460E92002BC0F27F85CD
:10334000079B013301F0398054EA090327F0800B11
:1033500000F005850A2C79F1000380F093870123A2
:103360005F4630348DF84F410B930DF24F15079A9D
:103370000B9900238A42B8BF0A4606929DF8832023
:103380000D930F9313931093002A7CD0069B013367
:10339000069378E047F0100717F0200900F032811B
:1033A0000E9B073323F00703D3F8049053F8084B20
:1033B0000E93002327F4806B00228DF88320079A58
:1033C000511C00F02A8254EA09012BF0800740F0DA
:1033D0002382002A41F02B80002B40F0C5841BF093
:1033E00001030B9300F0548530230DF24F158DF837
:1033F0004F31BCE7BAEB050600F0BA802A9BC8E95A
:10340000005633442A93299B0133072B299305DC6B
:1034100008F10808089B33440893E8E60C990A98D9
:1034200028AA03F0C9FC80B90DF1AC08F2E70C99A9
:103430000A9828AA03F0C0FC002800F08A800D9B9F
:103440001BB10D990A9802F05BFC0C9B9B8913F051
:10345000400F089B18BF4FF0FF330893089855B0F2
:10346000BDE8F08F002E00F08380012300228DF84C
:10347000EC6006933BAD8DF883200B930D92079281
:103480000F921392109217F0020302D006990231A4
:10349000069117F0840B07D109990698A1EB000952
:1034A000B9F1000F00F336832A9C82B10122C8F8DB
:1034B0000420299A013401320DF18301072A2A944C
:1034C0002992C8F8001000F3698308F108087BB15D
:1034D0000223C8F80430299B0234013321AA072BA8
:1034E0002A942993C8F8002000F36C8308F1080897
:1034F000BBF1800F00F02E82079B0B9AA3EB020B0F
:10350000BBF1000F00F37182FB0500F1C5810B9B3D
:10351000C8F800501C44C8F80430299B2A94013391
:10352000072B299300F3EA8208F108087B0705D5E9
:10353000099B069A9D1A002D00F35083DDE908329D
:1035400006998A42ACBF9B185B180893002C7FF445
:103550006EAF002329930D9B1BB10D990A9802F0C1
:10356000CFFB55460DF1AC082B78002B7FF432AE23
:103570002A9B002B3FF469AF0C9C0A98214628AA8D
:1035800003F01AFCA38962E70E9B073323F00702BE
:10359000F2E80234CDE91434DDE9143424F00044B7
:1035A000994618460E9221464FF0FF32B64BFDF772
:1035B00049FD002840F09684484621464FF0FF32EE
:1035C000B14BFDF721FD002840F08C84DDE91401AA
:1035D00000220023FDF70EFD002840F0A6879DF88D
:1035E000832000210320A94DA94B27F080070D91CE
:1035F0000690472EC8BF1D4607910B900F9113915F
:103600001091C1E617F0100340F0628417F04002F9
:1036100000F07B870E9A994652F8044B0E92A4B2A2
:10362000C7E653F8044B0E93FB0600F141847D0678
:1036300040F13B8444F3C0394B4624B27DE601207F
:1036400000220E9B069053F8041B3BAD8DF883209F
:103650008DF8EC100E930B9010E74FF000090E9CC4
:10366000079B54F8045B8DF88390002D00F0EE86E4
:103670005A1C00F060851A464946284602F0F8FEBA
:103680000D90002801F09E800D9B9DF883205B1B10
:103690000B9323EAE373CDF81C900E940693CDF8B8
:1036A0003490CDF83C90CDF84C90CDF840906BE63E
:1036B000099B5B4209939AF8006047F00407AAE56A
:1036C00047F0100B1BF0200900F0AA830E9B073374
:1036D00023F007031A4652F8084BD3F804900E92D1
:1036E000012369E6302278260E9B8DF8842053F85A
:1036F000044B684A0E934FF00009022347F0020B77
:103700008DF88560189257E6BD0600F1D683FC0659
:1037100000F19386780600F15D87B90540F18D864A
:103720000E9B089953F8042B554611700E931BE716
:103730009AF800606C2E03BF9AF8016047F02007EA
:103740000AF1010A47F0100765E59AF80060682E53
:1037500003BF9AF8016047F400770AF1010A47F0C5
:10376000400758E59AF8006047F0080753E50A9EBD
:10377000304602F0C5FB436818461B9303F0BAFAC3
:10378000034630461C931E4602F0BAFB8368199329
:10379000002E3FF4BBAD199B002B3FF4B7AD199B36
:1037A0001B78002B3FF4B2AD9AF8006047F48067B5
:1037B00031E59AF8006047F001072CE59DF8833069
:1037C000002B7FF4A3AD9AF800608DF8834022E5CA
:1037D0009AF8006047F080071DE5524612F8016B29
:1037E0002A2E01F0EB81A6F13003092B924698BFF7
:1037F000002201F203801AF8016B02EB820203EB54
:103800004202A6F13003092BF5D9079205E59AF893
:1038100000608DF88390FEE4BB46012B3FF49AAD27
:10382000022B54AD12D1189A04F00F03D35C240973
:1038300044EA09744FEA191905F8013D54EA0903ED
:10384000F2D154AB5B1B5F460B9390E504F007038A
:10385000E40844EA49744FEAD909303354EA0901CB
:103860002A4605F8013DF1D11BF0010FE9D0302BBC
:10387000E7D03023023A05F8013C54AB9B1A5F466F
:1038800015460B9373E500BFFFFFEF7FE4AC000824
:10389000E8AC0008F4AC0008652E40F3E980DDE9EF
:1038A000140100220023FDF79BFB002800F0D281C9
:1038B0000123C8F80430299BBF4A01330134072B88
:1038C0002A942993C8F8002000F37A8508F10808A3
:1038D000229B129A934280F2D782169B179A1C441D
:1038E000C8E90023299B2A940133072B299300F36D
:1038F000DD8308F10808129B5D1E002D7FF716AED0
:10390000102D41F34181DFF8B4922246494610263A
:10391000B946299B0F46DDF828B00C9C05E008F15C
:103920000808103D102D40F3588501331032072B45
:10393000C8E90076CDE92932F1DD2146584628AAAA
:1039400003F03AFA00287FF47AADDDE929320DF16F
:10395000AC08E6E7099B069AA3EB020BBBF1000F4C
:103960007FF7CAADBBF1100F41F30580DFF84C9231
:1039700041462046A8464C461023299A0C9DDDF866
:10398000289006E0ABF1100BBBF1100F01F108011C
:1039900019DD01321030072AC1E90043CDE92920A1
:1039A000F0DD2946484628AA03F006FA00287FF4ED
:1039B00046ADDDE92920ABF1100BBBF1100F4FF044
:1039C00010032BA9E5DC4546A14688460446013292
:1039D0005C44072ACDE92924C8F80090C8F804B04F
:1039E00000F3188508F1080886E5BBF1100F40F3D5
:1039F0009785DFF8C89141462046A8464C461023DB
:103A0000299A0C9DDDF8289006E0ABF1100BBBF174
:103A1000100F01F1080119DD01321030072AC1E948
:103A20000043CDE92920F0DD2946484628AA03F0C5
:103A3000C3F900287FF403ADDDE92920ABF1100BB9
:103A4000BBF1100F4FF010032BA9E5DC4546A14652
:103A50008846044601325C44072ACDE92924C8F887
:103A60000090C8F804B000F3CE8108F108084BE5D7
:103A7000129B012B40F37E810123299E01341E44B9
:103A8000072EC8F800502A94C8F80430299600F38D
:103A9000E18108F10808169B0136179A1C44072E8D
:103AA000C8E90023CDE9296400F3E18108F10808A1
:103AB0000022DDE914010023FDF792FA002840F00E
:103AC0007681129B0136013B01351C44072EC8F854
:103AD00000502996C8F804302A9400F35B8108F15D
:103AE00008081A9B01361C44C8F80430072E24AB82
:103AF000CDE92964C8F800307FF716AD0C990A9813
:103B000028AA03F059F900287FF499AC2A9C0DF1FA
:103B1000AC080BE5B9F1100F40F35086DDE929211F
:103B20004046CDE91D36B84610244F460C9EA946A6
:103B30000A9D04E0103F102F00F1080016DD01324D
:103B40001F4B1031072AC0E90034CDE92921F1DDEE
:103B50003146284628AA03F02FF900287FF46FACDD
:103B6000DDE92921103F102F2BA8E8DC4D46DDE9C7
:103B70001D36B9464746804609EB0104013210491B
:103B8000072ACDE92924C8F80490C8F8001000F3EA
:103B9000C3839DF8832008F1080886E40C990A98ED
:103BA00028AA1D9303F008F900287FF448AC2A9C4A
:103BB0001D9B0DF1AC088AE424AD000838AD000867
:103BC00028AD00080C990A9828AA03F0F5F80028F7
:103BD0007FF435AC2A9C0DF1AC0889E4102D40F33C
:103BE000C4861026299B0A9FDDF8309004E0103D22
:103BF000102D08F1080817DD0133B84A1034072BDF
:103C0000C8E90026CDE92934F1DD4946384628AA1D
:103C100003F0D2F800287FF412ACDDE92934103D1E
:103C2000102D0DF1AC08E7DC0133AC4A2C44072B16
:103C3000CDE92934C8F80450C8F800207FF77EACDD
:103C40000C990A9828AA03F0B7F800287FF4F7AB7C
:103C50002A9C73E42299002940F36F83DDF8409099
:103C6000129B9945A8BF9946B9F1000F0BDD299B1E
:103C70004C440133072BC8E900592A94299300F3D7
:103C80001D8508F10808109EB9F1000FA8BFA6EB2A
:103C90000906002E00F32582DDF840B07805AB441C
:103CA00000F15F82229B129A934202DBF90740F1F6
:103CB0007684169A17991444C8E90012299A2A940E
:103CC0000132072A299200F3138508F10808129A95
:103CD000AE18A6EB0B06D51AAE42A8BF2E46002E94
:103CE0000DDD299B34440133072BC8F800B0C8F818
:103CF00004602A94299300F3718508F10808002EC6
:103D0000A8BFAD1B002D7FF711AC102D40F33C87F1
:103D1000DFF8CC91224649461026B946299B0F462A
:103D2000DDF828B00C9C05E008F10808103D102DC6
:103D300040F3538301331032072BC8E90076CDE9F5
:103D40002932F1DD2146584628AA03F035F800282B
:103D50007FF475ABDDE929320DF1AC08E6E7079B8E
:103D6000002B7FF4FCAA5F46002354AD07930B930E
:103D7000FFF7FDBAFA073FF57FAE0123299E013414
:103D80001E44072EC8F800502A94C8F8043029961B
:103D90007FF7A5AE0C990A9828AA03F00DF8002821
:103DA0007FF44DABDDE929640DF1AC0899E6129B77
:103DB0005D1E002D7FF795AE102D40F3DF86224665
:103DC00007974FF0100BDFF818910A9C0C9F05E045
:103DD00008F10808103D102D40F37F8301361032A2
:103DE000072EC8E9009BCDE92962F1DD394620465E
:103DF00028AA02F0E1FF00287FF421ABDDE9296267
:103E00000DF1AC08E6E70C990A9828AA02F0D4FF55
:103E100000287FF414AB2A9C0DF1AC08FFF774BBAB
:103E20001BF010030E9A3AD11BF0400133D052F828
:103E3000044B99460E920123A4B2FFF7BDBA2D237D
:103E400064428DF88330BB464FF0010369EB4909AA
:103E5000FFF7B5BA0C990A9828AA02F0ADFF00281E
:103E60007FF4EDAADDE929640DF1AC0813E60C99A5
:103E70000A9828AA02F0A0FF00287FF4E0AADDE952
:103E800029640DF1AC0813E6FD077FF54FAB24E57F
:103E900054ADFFF76CBA1BF4007940F08A8352F8F6
:103EA000044B01230E92FFF787BAB80500F19B83FC
:103EB0004FEAE4794B46FFF740BA0E9B089853F857
:103EC000041BC2175546C1E900020E93FFF74CBB15
:103ED0000E9B53F8044B0E93FFF76BBA28AD000806
:103EE00038AD0008DDE9140102460B46FDF7AAF8DB
:103EF000002840F0E985612E00F07D85412E00F01C
:103F00008B84079B013300F08F8326F02003472B1F
:103F1000069300F08F85DDE9141247F480730F9348
:103F20001346002BC0F2B0850B9300238B461D93E4
:103F30000D93069B462B00F0E983452B00F0468548
:103F400007990B9B01910221009126A9049123A9B5
:103F5000039122A95A460A98029100F005FF069B98
:103F60000546472B40F03A8617F0010FB9460F9FE0
:103F700040F0FE84269B5B1B1293069B472B00F0B0
:103F80006E83069B462B00F0F083229B1093109BC0
:103F9000069A013B412A229300F0BB850021F2B230
:103FA000002B8DF89020B6BF2D222B22109B8DF870
:103FB0009120B8BFC3F10103092B40F39B850DF19C
:103FC0009F0C6246B64F1C46104687FB0312D9175A
:103FD000C1EBA20101EB8102A3EB42023032632C60
:103FE00000F8012C0B4600F1FF32ECDC3033811E6F
:103FF000DBB28C4502F8013C40F2F9850DF19201EB
:1040000001E012F8013B944501F8013BF9D10DF1B3
:10401000A1030DF192021B1A134424AA9B1A1A93AE
:10402000129B1A9A012B1A440B9240F381850B9B29
:10403000169A13440B9300230B9A29F4806722EA03
:10404000E27247F480770F930692139310931D9BAF
:10405000002B40F02C839DF883200793FFF794B941
:10406000BB46FFF72FBB8F4B189317F0200900F0CA
:10407000F5800E9B073323F00703D3F8049053F821
:10408000084B0E93F80709D554EA090306D03023EC
:104090008DF8856047F002078DF88430022327F4FD
:1040A000806BFFF789B9804B1893DEE70C990A986B
:1040B00028AA02F081FE00287FF4C1A92A9C0DF1F4
:1040C000AC0818E440210A9801F026FF0C9B186008
:1040D0001861002800F0978540230C9A5361FFF780
:1040E00062B8102E40F37685DFF8C091424648460C
:1040F0002146A846B9464FF0100B0746299B0A9C5B
:104100000C9D04E00832103E102E40F31382013360
:104110001031072BC2E9007BCDE92931F2DD2946B8
:10412000204628AA02F048FE00287FF488A9DDE98D
:1041300029312BAAE7E72846CDF81C900E9402F00F
:10414000D9FD20EAE0739DF883200B90CDF83490E0
:10415000CDF83C90CDF84C90CDF840900693FFF709
:1041600013B9129B4246DDF84C80EB185E4607936C
:10417000CDF82CA010972146199FDDF87090DDF83E
:1041800028A0DDF830B00F9B1395B8F1000F2ED0AA
:1041900083BB013F08F1FF381B9B4944C2E900394A
:1041A000299B2A910133072B299360DC0832079B56
:1041B00038789B1B8342A8BF0346002B1C460BDDAF
:1041C0002998194401300728C2E900632A912990EF
:1041D00000F3148138780832002CB4BF0546051B63
:1041E000002D0BDC06440F9BB8F1000FD0D1002B43
:1041F00000F026820F9B013B0F93CDE7102D40F37B
:104200009D841024299804E0103D102D02F108022D
:1042100016DD0130254B10310728C2E90034CDE905
:104220002901F1DD5946504628AA02F0C5FD0028B3
:104230007FF405A9DDE92901103D102D2BAAE8DC4A
:1042400001301A4B29440728CDE929015560136034
:1042500000F34182387808320644C4E717F01003AF
:1042600000F0A0800E9B53F8044B0E930AE75946CA
:10427000504628AA02F0A0FD00287FF4E0A82A9961
:104280002BAA94E700230BF480620696CDF82CA0AD
:10429000CDF834801E469246DDF8648054AF14E0B9
:1042A00067666666F4AC000808AD000838AD000823
:1042B0000023204649460A22FCF702FF0A2C79F126
:1042C00000031BD3044689462F4620460A220023BA
:1042D0004946FCF7F5FE30327D1E013607F8012C09
:1042E000BAF1000FE4D098F800309E42E0D1FF2EE2
:1042F000DED00A2C79F1000380F0308154AB5B1BD7
:10430000DDF82CA0CDF8648012965F46069EDDF89D
:1043100034800B93FFF72BB80C990A9828AA1D93A9
:1043200002F04AFD00287FF48AA89DF883202A9C89
:104330001D9B0DF1AC08FFF7B8B80123C8F8043095
:10434000299BBC4A01330134072B2A942993C8F8CE
:10435000002000F3178108F10808002940F086804A
:10436000129A07F0010313433FF4E0A8169B179934
:104370001A19C8E90013299B2A920133072B2993A4
:1043800000F3378108F10808129901338C18072BC4
:10439000CDE92934C8F80050C8F804107FF7C4A844
:1043A000FFF7ACBB17F0400200F0A5800E9A9946CB
:1043B00052F8044B0E92A4B264E6BB46FEF7CABFA5
:1043C0000C990A9828AA02F0F7FC00287FF437A875
:1043D0002A9C0DF1AC08FFF77BBA14463A464F46CB
:1043E000914601332C44072BC8F80090C8F80450BC
:1043F000CDE929347FF798A8FFF780BB594650468E
:1044000028AA02F0D9FC00287FF419A838782A9944
:104410002BAAE1E60C990A9828AA02F0CDFC002804
:104420007FF40DA82A9C0DF1AC08FFF765B8012BAD
:10443000BB467FF4F5A9FEF792BF0E9B089953F88F
:10444000042B554611600E93FFF78EB8062B2946B4
:1044500028BF06232A4607950D950693764D0E94A0
:104460000B930F9113911091FEF78EBF169B179827
:104470001A19C8E90003299B2A920133072B2993B3
:1044800000F3B78008F108080029BFF67DAF4E425F
:10449000103180F2A98341461024A846DFF89C9190
:1044A000DDF828B00C9D04E00831103E102E40F3DA
:1044B000A78201331032072BC1E90094CDE92932DC
:1044C000F2DD2946584628AA02F076FC00287EF440
:1044D000B6AFDDE929322BA9E7E71446079F01367D
:1044E0002C44072ECDE92964C8F80090C8F8045080
:1044F0007FF7F5AA4EE417F400790E9B66D053F8C7
:10450000044B91460E93E4B2BCE517F400790E9B80
:1045100057D053F8044B91460E93E4B2FEF749BFCF
:10452000299ADFF81891FFF795BA2D228DF883208C
:10453000FFF757B8454690463A460C464F469146D7
:1045400001333444072BCDE92934C8F80090C8F86A
:1045500004605CDC08F10808FFF79EBB1C9B1B99FC
:10456000ED1A1A46284602F0F3FB98F801300BB119
:1045700008F10108204649460A2200230026FCF7DC
:104580009FFD9FE60C990A9828AA02F015FC0028C6
:104590007EF455AF22992A9C0DF1AC08DDE6129A03
:1045A000AE18A6EB0B06D51AAE42A8BF2E46FFF7F3
:1045B000A6BB52F8044B894601230E92E4B2FEF7E3
:1045C000FBBE53F8044B0E93FEF7F3BE53F8044BB7
:1045D0000E9357E50E9B089953F8042B554611800E
:1045E0000E93FEF7C1BF44F3C0194B4664B2FEF709
:1045F000A4BE0C990A9828AA02F0DEFB00287EF4DB
:104600001EAFDDE9293222990DF1AC083CE70C9987
:104610000A9828AA02F0D0FB00287EF410AF2A9C4A
:104620000DF1AC08FFF738BB0623079326F02003F3
:10463000069370E424AD00081CAD000838AD0008F6
:10464000DDE91235EB189E42B346199790460C46A9
:1046500028BF9B46DDF82CA0109FFFF723BB229BB1
:10466000DA1C109302DB079A934204DD023E26F027
:10467000200306938BE4109B129A9342C0F2C280EF
:1046800019F0010F00F01D82169A13440B9319F4D0
:10469000806F00F01482109B6726002B76DC0B9B4A
:1046A00023EAE373069300230F931393CFE42D22A1
:1046B00000238DF883200793FEF768BE0C990A98B3
:1046C00028AA02F079FB00287EF4B9AE2A9C0DF1ED
:1046D000AC08FFF7D8BA5946504628AA02F06CFB3E
:1046E00000287EF4ACAE38782A992BAA06447AE5E5
:1046F0000C990A9828AA02F05FFB00287EF49FAE6E
:10470000229B2A9C0DF1AC08FFF7E1BA07990B9B9D
:1047100001910321009126A9049123A9039122A9C3
:104720005A460A98029100F01FFB03780546302B89
:1047300000F01682229B079AB94613440F9FEC188B
:104740005846002200230B99FCF74AFC08B1234687
:1047500011E4269BA342BFF40EAC30215A1C2692D2
:104760001970269B9C42F9D805E4229A002A1092DF
:1047700040F30E82079909F001030B4340F07E815C
:104780006626109B0B9319F4806F88D019990B78CB
:10479000FF2B00F025820024109A204604E001300F
:1047A0000131FF2B00F05981934280F25681D21AD9
:1047B0004B78002BF3D10B780134F2E7DDE92921A6
:1047C000FFF7DAB9079B9DF883200E9406930B93AD
:1047D00007900F9013901090FEF7D6BD0C990A9891
:1047E00028AA02F0E9FA00287EF429AE229D129B45
:1047F0002A9C0DF1AC085D1BFFF781BA00230793DB
:10480000FEF70BBD129B169A9A18109B0B92002B69
:1048100040F385816726B6E730238DF8843058232E
:104820008DF88530079B47F00204632B00F3C480AA
:1048300000233BAD0D9347F481730F93DDE9141210
:104840001346002B2746C0F284800B9300238B462F
:104850001D9326F020030693612E00F01881412E4F
:104860007FF467AB22AA58460B9902F0F9F90022AF
:104870004FF07F53FBF728FE02460B46CDE910238D
:1048800000220023FCF7ACFB08B101232293AD4BBF
:104890000B93079BCDE912A6CDE91E78DDE91067E1
:1048A000AB46DDF82CA003F1FF39109506E000229D
:1048B000002309F1FF39FCF793FBE8B90022A24B72
:1048C00030463946FBF700FE0F460646FCF7D0FBA4
:1048D0000446FBF78FFD0B46024639463046FBF790
:1048E0003BFC1AF80430B9F1FF3FD8464D46064666
:1048F0000F460BF8013BDAD1304639460022934B84
:10490000A946DDF848A0109DCDF84880CDE91001FA
:10491000DDF87C80139E1E9FFCF78AFB80BBDDE9DF
:1049200010010022894BFCF75BFB08B1E10727D49B
:104930004B46002B06DB302201335B440BF8012B86
:104940005B45FBD1ABEB0503B94612930F9FFFF715
:1049500014BB26F0200306932D22DDE914349B4678
:1049600004F100431D920B9376E7299BFFF75CB996
:10497000079BEC18E4E6299ADFF8D491FFF727B8F3
:10498000129B26930B9B1BF8012CD97B5B468A421A
:1049900009D1302003F8010C269B5A1E269213F8E9
:1049A000012C9142F6D0392A0BBF0B9A0132927A30
:1049B000D2B203F8012CC5E70A98591C01F0ACFAF1
:1049C0000546002800F017810D9034E70221009180
:1049D00007995A464C1C26A9049123A9039122A9A0
:1049E0000B9B0A980194029100F0BEF90546B94666
:1049F0002C440F9FA4E630238DF8843078230FE7F2
:104A00004546884601333244072BCDE92932C8F8A0
:104A10000090C8F804607FF7B5AC0C990A9828AAF2
:104A200002F0CAF900287EF40AADDDE929320DF161
:104A3000AC08A9E4079B002B08BF0123079347F4A8
:104A400080730F93159B002BC0F2B680DDF850B039
:104A50000D900B931D90FFF773BA1991109213905C
:104A60000F940F9A139B1C9913440B9A01FB032379
:104A70000B9323EAE3730693FFF7E9BA169B6626C6
:104A8000D31819440B917EE600230D9364E722AA04
:104A900058460B9902F0E4F800224FF07F53FBF7E1
:104AA00013FD02460B46CDE9102300220023FCF73C
:104AB00097FA08B101232293264B0B93E9E6672668
:104AC000EDE5109B0B93E2E5159B0320002BB8BF8F
:104AD0002D224FF00003A8BF9DF8832019460D93A7
:104AE0001D4D1E4BB8BF8DF8832027F08007069020
:104AF000FEF77FBD002944D130228DF892200DF1C0
:104B00009302303302F8013B24ABD31A1A93FFF718
:104B100087BA06F10F020121D2B2FFF741BAC3F101
:104B200001031A4422EAE27367260B920693BAE560
:104B300019F0010F3FF47FAAFFF779BA2998FFF720
:104B40007FBB00BF08AD0008000030400000E03F20
:104B500038AD0008F4AC0008ECAC0008F0AC00087C
:104B60005846002200230B99FCF73AFA00287FF4FC
:104B7000E1AD079BC3F101032293DCE5DFF89890D8
:104B8000ADE40DF19202BCE7299BDFF88C9028E49C
:104B9000079A09F0010959EA020304D101236626A4
:104BA00006930B937FE5169B662601331A4422EA8F
:104BB000E2730B92069376E50D90CDE60E9B9AF884
:104BC0000160924653F8042B0E9342EAE273079376
:104BD000FEF721BB299BDFF84090B1E4079C06E774
:104BE00000230F9313933CE7DFF82C900AE702238E
:104BF0001A93FFF715BA0C998B8943F040021346BC
:104C00008A81FEF724BC4FF0FF320C2308920A9AE7
:104C10001360FEF723BC00BF38AD0008024B13B190
:104C2000024800F005B8704700000000355C00083D
:104C3000002301461A46184602F03CB92DE9F04F10
:104C400003690C6985B0A342C0F28980013C01F17F
:104C50001405A30000F11408019355F8243058F806
:104C6000242001338A469A4208EB84018146B2FB34
:104C7000F3F605EB840702913AD30021AE46404695
:104C80000A46A34603955EF8045B0468ABB206FBD4
:104C900003132D0C190C06FB05119BB2D21A1FFA37
:104CA00084FC94448AB2C2EB144202EB2C421FFAF9
:104CB0008CFC4CEA0243774540F8043B4FEA114133
:104CC0004FEA2242DFD2019B5C4658F80330039D35
:104CD00073B9029B043B984504D307E0984504F15F
:104CE000FF3403D253F80429002AF7D0C9F8104042
:104CF0005146484601F08CFE00282CDB404600233C
:104D0000013655F8041BD0F800C08AB29A1A1FFA6F
:104D10008CFE0B0C7244C3EB1C4303EB224392B298
:104D200042EA0342AF4240F8042B4FEA2343E8D261
:104D300058F8242008EB84036AB9043B984504D34F
:104D400007E0984504F1FF3403D253F80429002A00
:104D5000F7D0C9F81040304605B0BDE8F08F00200C
:104D600005B0BDE8F08F00BF2DE9F04F90469946A1
:104D7000016C99B00446CDE90489259D41B1012318
:104D8000426C93408B604A6001F0ECFB002323648B
:104D9000B9F1000AB4BF012300232B60764BBCBFDE
:104DA0002AF0004ACDF814A033EA0A0300F0AA80E2
:104DB000DDE904231046194600220023CDE90A014B
:104DC000FCF70EF9074670B10123249A1360269B65
:104DD000002B00F0E68269481860431E0393039895
:104DE00019B0BDE8F08F16AB019317AB00932046C6
:104DF000DDE90A2301F0D2FE5FEA1A56054640F0CB
:104E00009780DDE916763E4406F23240202840F3D2
:104E1000B783C0F140000AFA00FA06F2124028FAFD
:104E200000F04AEA0000FBF7D5FA0123013E0F9398
:104E3000A1F1F8710022524BFBF78EF948A3D3E998
:104E40000023FBF741FB48A3D3E90023FBF786F9D6
:104E5000804630468946FBF7CDFA45A3D3E90023C7
:104E6000FBF732FB02460B4640464946FBF776F914
:104E700080468946FCF7FCF8002283460023404622
:104E80004946FCF7B7F8002840F07E82BBF1160FC8
:104E900000F26D82DDE90A013A4B03EBCB03D3E963
:104EA0000023FCF7A7F8002872D00023BE1B0E9346
:104EB000731E0BF1FF3B069300F160820023099300
:104EC000BBF1000F6BDA099BCDF81CB0A3EB0B0311
:104ED0000993CBF100030D93229B4FF0000B092B9C
:104EE00066D8052B40F34A830026043B2293229B7D
:104EF000023B032B00F26C86DFE813F061045E04D2
:104F00005504380442F20F73249ACAF3130A13604B
:104F10005AEA08031AD1269B002B00F068861A4B28
:104F200003930833269A0398136019B0BDE8F08FF5
:104F3000DDE90A12C2F31303084643F07F510F97CD
:104F4000A6F2FF36169F41F4401173E7269B002B13
:104F500040F0EF830D4B039341E700BFAFF30080B8
:104F600061436F63A787D23FB3C8608B288AC63F6F
:104F7000FB799F501344D33F0000F07F25AD00081C
:104F80000000F83F98AE00084CAD000848AD00089E
:104F9000BE1B731E069300F18A840E900990069B37
:104FA0005B44CDE9063B00230D93229B092B98D946
:104FB000002322934FF0FF330126089300230C9621
:104FC00023930021089B61641293204601F0A4FA08
:104FD0000390002800F00486039B2364089B0E2B9B
:104FE00000F21481002E00F011810799002940F38E
:104FF0006084AF4B01F00F0203EBC2030A46D3E912
:1050000000674FEA2118D10540F11784DDE90A0154
:10501000A84B4FF0030AD3E90823FBF77FFBCDE948
:10502000100108F00F08B8F1000F13D0DFF88492D8
:1050300018F0010F09D0D9E9002330463946FBF7B3
:1050400043FA06460F460AF1010A5FEA680809F1C9
:105050000809EDD1DDE9100132463B46FBF75EFB66
:10506000804689460E9B43B1002240464946924BFA
:10507000FBF7C0FF002840F035855046FBF7BAF932
:1050800042464B46FBF720FA8C4B0022FBF766F8B2
:10509000A1F15073CDE910011193089B002B00F092
:1050A0009780079B1493089B13930C9B002B00F095
:1050B000A984139A7E4B002003EBC20353E9022319
:1050C0007F49FBF72BFBDDE91023FBF745F8CDE922
:1050D000100149464046FBF7CBFF0746FBF78AF92C
:1050E00002460B4640464946FBF736F8DDE91023F9
:1050F000039E303706F8017B80468946FBF77AFF2E
:10510000002840F02E85CDF854B00027DDE910AB23
:105110001095139D13942AE00137AF4280F22E853B
:10512000504659460022674BFBF7CEF90022654BEB
:1051300082468B4640464946FBF7C6F9894680467B
:10514000FBF796FF0446FBF755F902460B4640462F
:105150004946FBF701F8303452465B4606F8014BEE
:1051600080468946FBF746FF002840F0F884424617
:105170004B4600205049FAF7EFFF52465B46FBF7DB
:1051800039FF0028C8D0DDE91343109D039A079327
:1051900002E0964200F0CD84B24616F8013D392B6C
:1051A000F7D00133DBB23370079B01330793C8E1BB
:1051B0005046FBF71FF942464B46FBF785F93F4B3C
:1051C0000022FAF7CBFFA1F15073CDE91001119342
:1051D0004046494600223C4BFAF7BEFFDDE9108904
:1051E0004B46424606460F46FBF722FF8146002803
:1051F00040F0AF84DDE91001024601F10043304682
:105200003946FBF7F7FE002840F04883179B002B38
:10521000C0F28C80079A0E2A00F38880244B03EB9F
:10522000C203D3E900AB239B002B1BDA089B002BA6
:1052300018DC40F031830022234B50465946FBF7DF
:1052400043F902460B46DDE90A01FBF7DDFEDDF816
:1052500020904E46002800F0CA82239BDDF80C8087
:10526000DF43CCE25246DDE90A785B4638464146E8
:10527000FBF754FAFBF7FCFE81460990FBF7BAF8FE
:1052800052465B46FBF720F9039E0B460246414619
:105290003846FAF761FF09F1300306F8013B089B35
:1052A000012B00F05F83069401271C4604952AE039
:1052B00098AE000870AE00080000F03F00001C40EF
:1052C0000000E03F000024400000144052465B46CE
:1052D00040464946FBF722FAFBF7CAFE0546FBF7B4
:1052E00089F852465B46FBF7EFF801370B4602465A
:1052F00049464046FAF730FF05F13003A74206F869
:10530000013B00F02C830022AB4BFBF7DDF80022C1
:10531000002380468946FBF763FE0028D6D0049D13
:10532000069C079BB246013307930AE10C9A002AB8
:105330003DD0229A012A40F39F82089B03F1FF3857
:105340000D9B4345C0F27082A3EB0808089B002B1D
:10535000C0F24083069A1A440692099A17461A44E4
:1053600009920121204601F0A5F9064623E0012318
:10537000BE1B0E93731E06937FF5A0ADC6F101030D
:105380000993002306939BE55846FBF733F8424602
:105390004B46FBF725FE00287FF478AD0BF1FF3B71
:1053A00074E5864B0393039819B0BDE8F08FDDF8E0
:1053B0003480099F0C9E002F0CDD069900290B46B6
:1053C00008DDB942A8BF3B46099AFF1AD21ACB1A88
:1053D000099206930D9BE3B10C9B002B00F06082B9
:1053E000B8F1000F10DD31464246204601F03EFA8A
:1053F00006462A463146204601F08AF903462946E8
:1054000020461D4601F0AEF80D9BB3EB080240F0BC
:10541000DB820121204601F04DF9BBF1000F8146EE
:1054200000F3B380229B012B40F388814FF0000AE8
:105430000120BBF1000F40F0B480069A104410F038
:105440001F0000F09280C0F12003042B40F3D383AF
:10545000099BC0F11C0003440244099307440692CF
:10546000099B002B05DD29461A46204601F05AFA11
:105470000546069B002B05DD49461A46204601F0ED
:1054800051FA81460E9B002B40F03881089B002B7F
:1054900040F31E810C9B002B40F09F80079B013343
:1054A00007930127DDF80C80DDF820A007E02946EE
:1054B00000230A22204601F05FF8054601374946DD
:1054C0002846FFF7BBFB574500F1300308F8013BC6
:1054D000EDDB089A0027002ACCBF93464FF0010B62
:1054E000039A9344294601222046049301F01AFAB4
:1054F0004946054601F08CFA002840F3AB811BF8C1
:10550000013C039A0BF1FF3B04E05A4500F0AD81EA
:105510001BF8013D392B0BF1010AF6D001338BF852
:1055200000304946204601F01DF856B12FB1B74270
:1055300003D03946204601F015F83146204601F0E7
:1055400011F82946204601F00DF80023079A8AF841
:105550000030249B1A60269B002B3FF440AC03983C
:10556000C3F800A019B0BDE8F08F1C20099B0744C8
:1055700003440993069B0344069371E70126B6E4AE
:10558000C0F1200008FA00F04DE401465A462046DA
:1055900001F06CF9229B8146012B40F3B6814FF05C
:1055A000000AD9F8103009EB8303186901F036F8C6
:1055B000C0F1200041E700BF0000244024AD0008F6
:1055C000314600230A22204600F0D6FF129B0646F1
:1055D000002B40F3E982CDE90783002F00F31D8102
:1055E000BAF1000F40F0D981B046049B089903F04E
:1055F0000102039B0A921F46013B1944229B08911A
:105600001343099349462846FFF718FB3146834662
:10561000284601F0FDF9424649468246204601F0FF
:1056200017FAC26801460BF13003002A43D10490F7
:105630002846069301F0ECF90246049920460492AC
:1056400000F090FF049A069B1AB90999002900F00E
:105650009B82BAF1000FC0F2648122994AEA010AE2
:105660000A9951EA0A0100F05C81002A00F3B68130
:10567000089A07F1010A9742D3463B7000F0B481C3
:10568000294600230A22204600F076FF46450546BB
:1056900031464FF000034FF00A02204612D000F0CE
:1056A0006BFF4146064600230A22204600F064FFB5
:1056B00057468046A6E72046049300F053FF012298
:1056C000049BC6E700F058FF57460646804699E718
:1056D000229B022B7ADC0C9B002B7FF47EAF079B76
:1056E0004946013328460793FFF7A8FADDF80CB0C6
:1056F00000F1300300270BF8013BF3E6494628464A
:1057000001F086F90028BFF6C1AE294600230A221F
:10571000204600F031FF079B054603F1FF380C9B44
:10572000002B7FF44DAF129B002B40F33482089383
:10573000B7E6B04B03930333FFF7F4BBDDE9041284
:1057400000297FF473AEC2F31303002B7FF46EAE17
:10575000A94B1340002B00F00082099B4FF0010A77
:1057600001330993069B0133069361E601230C93F1
:10577000239B079A134412930133012B1F46B8BF92
:10578000012708930021172F61647FF71EAC0122C7
:1057900004235B0003F11400B842114602F1010238
:1057A000F7D9616411E401230C93239B002B4CDD9A
:1057B0001F4612930893E5E700230C93D8E70023D4
:1057C0000C93F2E7129BCDF81C800893089B002BEA
:1057D0007FF443AD49460522204600F0CDFE8146C8
:1057E0002846494601F014F900287FF736AD3123E9
:1057F0000398079F804600F8013B01370390494614
:10580000204600F0AFFE7B1CDDF80CA00793CDF81E
:105810000C80002E7FF491AE93E631463A46204646
:1058200001F080F80646DBE60D9BCDF83480A8EB4E
:1058300003039B444FF0000888E5DDE90A234FF09D
:10584000020ACDE91023FFF7EEBB0123239308934F
:10585000FFF7B7BB03D1049BD8073FF550AEDA463C
:105860001BF8013D302BFAD05BE6079B039A01330E
:1058700007933123137054E60F9A002A00F0288111
:1058800003F23343069ADDF834801A440692099AEB
:1058900017461A44099264E54FF000094E46DCE4CD
:1058A000294620460D9A00F0E1FF0546B1E50E902D
:1058B00064E500F01181DDE90A01079A4F4B564279
:1058C00006F00F0203EBC203D3E90023FAF7FCFD55
:1058D00036118046894600F0708100234FF0020A9D
:1058E000474FF20706D5D7E90023FAF7EDFD01236C
:1058F0000AF1010A761007F10807F2D1002B3FF4F4
:10590000B1AB80468946FFF7ADBB049B002B7FF40B
:1059100046AEDDE90412C2F31303002B3FF418AFC7
:105920003DE6002A12DD294601222046049300F0BC
:10593000F9FF4946054601F06BF80028049B40F347
:105940001781392B00F0FB800BF13103BA46079A1F
:1059500037460132464607920AF8013BE1E50995D0
:10596000069C049D02460B46FAF7F8FB52465B463E
:1059700080468946FBF75CFB60B952465B46404671
:105980004946FBF72DFB00283FF4CBAC099BD90718
:105990007FF5C7AC039AFFF7FFBB2046716800F0A4
:1059A000BBFD0746002800F00C81336906F10C01AD
:1059B00002339A000C30FBF747FA394601222046A1
:1059C00000F0B0FF804610E62946204600F04EFF6A
:1059D00005461EE5DDE908239F1AC2E4392B00F0D5
:1059E000AE80BA460133B2E7079A374601324646DF
:1059F000079277E548AD00080000F07F98AE0008F8
:105A000070AE0008DDF84CA08349DDE9102301EBFE
:105A1000CA0151E90201FAF757FDCDE910014946E3
:105A20004046FBF725FB0646FAF7E4FC0B46024628
:105A300049464046FAF790FB5346039F3036012B08
:105A40008046894607F8016B00F0AC80139E039BEB
:105A50001E440022714B40464946FAF735FD8946FF
:105A60008046FBF705FB8246FAF7C4FC02460B466C
:105A700040464946FAF770FB0AF1300A07F801ABD5
:105A8000B74280468946E4D1DDE910010022644B2B
:105A9000FAF764FB42464B46FBF7ACFA002862D1AA
:105AA000DDE9102300205E49FAF756FB42464B46DB
:105AB000FBF7BEFA00283FF4A9AB16F8013CB2464A
:105AC000302B06F1FF36F8D0149B0133079338E5ED
:105AD000169BC3F13603D5E64FF0020ADDE90A89C9
